:100000000C94DB000C9403010C9403010C94030189
:100010000C9403010C9403010C9403010C94030150
:100020000C9403010C9403010C94AC120C941B135C
:100030000C9403010C9403010C9403010C94030130
:100040000C9403010C9403010C9403010C94030120
:100050000C9403010C9403010C9403010C94B5144B
:100060000C9403010C9403010C9403010C94030100
:100070000C9403010C9403010C9403010C940301F0
:100080000C9403010C9403010C9403010C940301E0
:100090000C9403010C9403010C9403010C940301D0
:1000A0000C9403010C9403010C94030106C0FF0A95
:1000B000000CA1017508150026FF0095400901817B
:1000C00002954009029102C00403090412010002D2
:1000D000000000403A0900250001010200015069BA
:1000E0007861727420496D6167696E672C20496E72
:1000F000632E00555342204F50544943414C204DEC
:100100004F555345000000000200090F0000030492
:1001100001000C00000000000000000000000000D2
:100120000000000000000000250028002B002E0029
:10013000310000000000240027002A002D003000BC
:10014000040404040403040502020202040302027C
:10015000020206060606060604040202020404045D
:1001600008020110408040102040804080080204B6
:100170000180402010020110801020404020050125
:100180000902A1010901A10085010509190129033D
:1001900015002501950375018102950175058103FF
:1001A00005010930093109381581257F7508950346
:1001B0008106C0C0F61511241FBECFEFDAE0DEBF06
:1001C000CDBF11E0A0E0B1E0E4E9F7E302C00590A3
:1001D0000D92A43DB107D9F723E0A4EDB1E001C031
:1001E0001D92A63BB207E1F710E0CBEDD0E004C0D2
:1001F0002197FE010E94B61BCA3DD107C9F70E9494
:10020000BD170C94C81B0C9400008CBD9DBD0895B7
:1002100090E0FC01E15AFE4F2491805C9E4FFC016E
:100220008491882399F090E0880F991FFC01EE5C7F
:10023000FE4FA591B491FC01EC5DFE4F8591949128
:100240008FB7F894EC91E22BEC938FBF0895FC01EB
:1002500080913702882311F13FB7F89482E08093B0
:10026000E9002091F200822F90E01816190614F48C
:1002700081E090E0882339F0289844E640933602E4
:100280004091F1004083222339F02091F2002111A6
:1002900003C02BE62093E8003FBF08958FEF9FEF48
:1002A00008954091EB015091EC012091E9013091CA
:1002B000EA0142175307B4F49091E8009570E1F316
:1002C0009091E80092FD19C08093F1008091EB01BC
:1002D0009091EC0101968F739927892B19F48EEF79
:1002E0008093E8008091EB019091EC01019690934E
:1002F000EC018093EB0181E0089580E00895DF92A6
:10030000EF92FF920F931F93CF93DF93D82E8A0122
:10031000EB017B01E40EF51ECE15DF0559F0D7FE8B
:1003200012C0FE0184910E94510121968111F4CFE7
:100330000FEF1FEFC801DF91CF911F910F91FF9039
:10034000EF90DF9008958881EECF2FB7F8948770F3
:100350008093E9009091E800892F807295FF04C096
:100360009091F20080E4891B2FBF0895615030F016
:100370002091F100FC0120830196F8CF289884E6B3
:10038000809336020895AF92BF92DF92EF92FF9270
:100390000F931F93CF93DF935C018B01EB019BEFD6
:1003A000D92E2097C1F07E01C134D1051CF080E424
:1003B000E82EF12C8091E80082FFFCCFC8018C1B55
:1003C0009D0B6E2D8A0D9B1D0E94B601D092E800F8
:1003D000CE19DF09E6CFC801DF91CF911F910F91B0
:1003E000FF90EF90DF90BF90AF900895AF92BF92D3
:1003F000CF92DF92EF92FF920F931F93CF93DF93F1
:100400006C017B018B01040F151FEB015E01AE181F
:10041000BF08C017D10759F06991D601ED91FC9141
:100420000190F081E02DC6010995892B79F7C5016E
:10043000DF91CF911F910F91FF90EF90DF90CF90C0
:10044000BF90AF9008958091E10181110DC082E0CD
:100450008093DD0184E08093DE011092E001109230
:10046000DF0181E08093E1018DED91E008950F932C
:100470001F93CF93DF931F92CDB7DEB719820E94EF
:100480002302DC0112960D911C910115110589F0D2
:10049000D801ED91FC910280F381E02DBE016F5FE8
:1004A0007F4FC801099597FD04C0F80100851185AB
:1004B000ECCF89810F90DF91CF911F910F9108951B
:1004C000CF93DF93FC01DB01818114963C9114975B
:1004D000682F630F7727771F683071059CF5C281FD
:1004E000D381209739F5B383A283908112969C9390
:1004F000129713968C93139715968C911597890FD5
:10050000808390E080E0831708F52181C22FD0E03E
:10051000BE01645F7E4F16964D915C911797480F10
:10052000591FEA014881EB0148832F5F218301961F
:10053000EACFEA014885598541155105D1F7B987B8
:10054000A887D3CF80E0DF91CF91089581E0FBCFE2
:10055000CF93DF931F92CDB7DEB76983DC01ED91B6
:10056000FC910280F381E02D41E050E0BE016F5F1D
:100570007F4F09950F90DF91CF91089583E080938D
:10058000E9008091F200882319F08AE38093E80063
:10059000089583E00E94A50190E00895CF93DF9332
:1005A0001F92CDB7DEB7FC018485958597FD08C005
:1005B0002FEF3FEF358724870F90DF91CF9108957C
:1005C000CE0101960E942701019719F4898190E0DC
:1005D000F3CF8FEF9FEFF0CF0F931F93CF93DF9366
:1005E0001F92CDB7DEB78C01FC018485958597FFFE
:1005F0000BC0CE0101960E942701019771F48981F9
:1006000090E0F80195878487F801848595850F909F
:10061000DF91CF911F910F9108958FEF9FEFF1CF51
:10062000FC018485958597FD0BC09FB7F89482E007
:100630008093E9008091F2009FBF90E001960895B9
:100640009FB7F89482E08093E9008091F2009FBF09
:1006500090E008953FB7F8948091D9019091DA0124
:10066000A091DB01B091DC0126B5A89B05C02F3F0E
:1006700019F00196A11DB11D3FBFBA2FA92F982FC8
:100680008827BC01CD01620F711D811D911D42E0C3
:10069000660F771F881F991F4A95D1F708958F928B
:1006A0009F92AF92BF92CF92DF92EF92FF924B0157
:1006B0005C010E942A036B017C010E942A036C19D1
:1006C0007D098E099F09683E734081059105A8F355
:1006D00021E0821A9108A108B10888EEC80E83E0D3
:1006E000D81EE11CF11C81149104A104B10429F766
:1006F000FF90EF90DF90CF90BF90AF909F908F9042
:1007000008957F928F929F92AF92BF92CF92DF9285
:10071000EF92FF920F931F93CF93DF93C82E8B011D
:100720007A0180913702811110C08FEF9FEFDF9126
:10073000CF911F910F91FF90EF90DF90CF90BF90DE
:10074000AF909F908F907F9008958091EE0180FFF1
:1007500005C08091E00082608093E000CE2DDF2D07
:10076000D12C8AEFB82E8C2D8770982E8C2D80720C
:10077000882E8C2D8074782E9AE3A92E209719F458
:10078000DD2009F452C08C2D0E94A50181110AC000
:10079000BA94BB2051F261E070E080E090E00E94EA
:1007A0004F03ECCF8C171D0611F00CF08C2F9FB768
:1007B000F8949092E9002091E80025FD02C09FBFC7
:1007C000DDCF282F30E0C21BD30B882029F08150C9
:1007D000A0F01092F100FBCFF801C7FC0AC08150D5
:1007E00050F041914093F100FACF44914093F100D1
:1007F00031968150D0F7020F131FDD2021F0A09217
:10080000E800D12CDCCF8091E80085FD07C0A092E4
:10081000E800DD24D394209791F2F3CF209779F666
:10082000772069F2A092E800CACF5D9884E68093B1
:10083000ED01C7017CCF1F93CF93DF9300D000D091
:100840001F92CDB7DEB79091D30299838A836B83D1
:100850004C838091BD0281112CC011E01093B00235
:100860001093B10286EB92E09093B3028093B202B0
:100870001092B5021092B40285E691E09093AD0219
:100880008093AC021092B8021092B7021092BA0292
:100890001092B9021093BB021093BC0281EC8093BA
:1008A000B6020E9423026CEA72E00E94600210937A
:1008B000BD0281E08D8341E050E0BE016B5F7F4F60
:1008C0008091AF020E94810397FD0AC08091AF0220
:1008D00044E050E0BE016F5F7F4F80640E9481035F
:1008E0000F900F900F900F900F90DF91CF911F916D
:1008F0000895CF93DF93EC0180910B01882331F0B1
:1009000083E00E9481031816190634F081E090E01C
:100910009B838A8380E090E0DF91CF9108952FB789
:10092000F8946091D5017091D6018091D701909192
:10093000D8012FBF08950F931F93CF93DF93EC013E
:10094000FB012A81848195812817190641F4918140
:100950008081813A31F49D7F81E0913049F080E0DF
:1009600007C08132E1F79B3041F482818F8B81E0B7
:10097000DF91CF911F910F9108959A3019F48381DF
:10098000888FF5CF993059F706811781838183309D
:1009900081F489A19AA10817190709F7B8018F8D69
:1009A00098A10E94C30189A19AA190689AA389A3E2
:1009B000DECF8230A1F68B8D9C8D892B81F6898DBF
:1009C0009A8D801791075CF2801B910B2D8D3E8DC7
:1009D000B801820F931F0E94C3011C8F0B8FC7CFDA
:1009E000FB0120812138B1F42381223299F4DC010A
:1009F00012964C911297248135814217130651F4B7
:100A000021E057962C934CE150E06CEA70E080E8CE
:100A10000C947F0190E080E00895CF93DF93CDB7F1
:100A2000DEB769970FB6F894DEBF0FBECDBFFC01ED
:100A3000DB019C919F5F9C939E012D5F3F4F81E165
:100A4000D9011D928A95E9F729E0298384E08A83F8
:100A500091E09D8383E08E832A8721E22B879C8708
:100A60009D879F8722E2288B2CE1298B27E02B8B07
:100A700025E02C8B8E8B20E430E0388F2F8B998FE4
:100A800082818B83838180688D8B49E150E0BE0138
:100A90006F5F7F4F80E00E947F0169960FB6F894E8
:100AA000DEBF0FBECDBFDF91CF910895CF93DF930F
:100AB0001F92CDB7DEB76983DC01ED91FC9102880E
:100AC000F389E02D41E050E0BE016F5F7F4F099553
:100AD0000F90DF91CF9108950A970C9456050895D1
:100AE0000895DC015B968D919C915C971816190610
:100AF00074F459962D913C915A97281B390B5D96A9
:100B0000ED91FC91E20FF31F808190E008958FEF4B
:100B10009FEF08950A970C947105FC01438D548D45
:100B2000141615068CF4858D968D218D328DBA01A3
:100B300061507109748F638FF901E41BF50BE80FA5
:100B4000F91F808190E008958FEF9FEF08950A9735
:100B50000C948D05FC018189928997FF02C090E079
:100B600080E00895FC01838D948D97FF02C090E092
:100B700080E00895FC0182818F5BFB01808381E02E
:100B800008950F931F93CF93DF93FC018B01EA012C
:100B900080819181892B31F19281992349F12881BA
:100BA0003981232BF9F0D8012D913C91D9014C9139
:100BB0008381682F691B770B80819181860F971F36
:100BC000DC014C93828181508283888199810197D5
:100BD00099838883D8018D919C91119701968D936B
:100BE0009C93DACF80E0DF91CF911F910F91089510
:100BF0008381828381E0F7CF3F924F925F926F9221
:100C00007F928F929F92AF92BF92CF92DF92EF929C
:100C1000FF920F931F93CF93DF9300D000D0CDB7F7
:100C2000DEB76C017A8369835C834B8384E0482E52
:100C3000360182E1680E711C93E0392E5601A7E05F
:100C4000AA0EB11C12E0552453944601B0E18B0E5C
:100C5000911C29813A812115310509F4CBC0F60197
:100C600080A18230F1F0A8F5882309F457C08130C3
:100C700091F7AE014F5F5F4FBE016D5F7F4FC501C2
:100C80000E94C105882309F4B5C0D6011596ED91DF
:100C9000FC911697808191968C9391978181929681
:100CA0008C93F6017682658230A2D60192968C9161
:100CB0009297843011F493961C92F60181A1825090
:100CC000848325813681308727838287818740A26C
:100CD00005C0833051F3843009F0BDCFD601929620
:100CE0008C919297843019F1853009F44CC0823090
:100CF00009F073C0AE014F5F5F4FBE016D5F7F4F64
:100D0000C5010E94C105882309F474C0F6018589D4
:100D100084A3F6019682858210A29BCF14838581DD
:100D20009681908787831287118750A2A2CFAE0148
:100D30004F5F5F4FBE016D5F7F4FC5010E94C105D0
:100D4000882309F457C0D60155968C915597833066
:100D500001F798968C9198978111DBCF93965C92CE
:100D6000939752968C91529796968C93969753960A
:100D70008C91539797968C93979757968C915797FA
:100D800095968C93C6CFAE014F5F5F4FBE016D5FEE
:100D90007F4FC5010E94C105882361F1F60183A13F
:100DA000882309F4B6CF82819381009709F4B1CFEB
:100DB000DC01ED91FC910190F081E02D7401D601F0
:100DC00095960C91959797962C91979796964C910E
:100DD000969794966C9109959CCFF601858588230A
:100DE000F9F0813041F1D6011E968D919C91892BAD
:100DF00009F48FCF0F900F900F900F90DF91CF914C
:100E00001F910F91FF90EF90DF90CF90BF90AF9028
:100E10009F908F907F906F905F904F903F9008953C
:100E200091968C9191978250990B1F969C938E93DB
:100E30001E971D965C9229813A818B819C81782F27
:100E4000692FF601468557854115510581F00196B8
:100E50002115310539F041505109578746872150F6
:100E60003109EDCF7B836C831A821982BCCF9C83BE
:100E70008B833A8329831586B6CFCF93DF93EC011A
:100E80008C819D81DC01ED91FC910480F581E02D48
:100E90006E81099581E08E8F1E821F8E18A219A285
:100EA0001AA21CA280E0DF91CF910895FC01DC0121
:100EB000A65ABF4F8C918823A1F08781681741F013
:100EC000828521E030E0681729F090E080E0089505
:100ED00030E020E0C901880F991F820F931FE80FAF
:100EE000F91F808591850895FC018781811104C0D7
:100EF00080859185892B59F08285811106C0838573
:100F0000948521E030E0892B21F080E0089530E0E5
:100F100020E0C901880F991F820F931FE80FF91F66
:100F200067835187408781E008950895DF92EF92AB
:100F3000FF920F931F93CF93DF93EC0185E0E62E92
:100F4000F12CFE01869FE00DF11D1124908596FF86
:100F500024C0192F177001E085E0D82E8FEF800F85
:100F60008F3008F001E0602F70E0062FD69EF00170
:100F7000D79EF00D1124EC0FFD1F80858695869578
:100F800086958770181701F16F5F7F4F603168F3A6
:100F90008D81811302C011501D8385E08E9DF0016B
:100FA0008F9DF00D1124EC0FFD1F108681E08187CD
:100FB00012862296D783C683DF91CF911F910F911E
:100FC000FF90EF90DF900895CE010E949607C6CF64
:100FD000FC0120812EBD9B012150310941F051813E
:100FE0000DB407FEFDCF4EB55EBD4193F5CF615008
:100FF0007109860F971F0DB407FEFDCF2EB5FC01BA
:1010000020830895FC0121E0613499F49C01255B63
:101010003F4F61E0AC014E5F5F4F158666871786D4
:101020005487438735962E173F07B9F7FC01158281
:1010300008953585631729F02F5F35962031C9F75C
:101040000895622F0C949607CF93DF93FC0167FD00
:1010500012C0283080F4442319F08581873059F07C
:10106000EF01A1E0B0E08D85882349F11196259626
:10107000A031B105C1F780E018C085E08A9FE0018A
:101080008B9FD00D1124CE0FDF1F442389F081E404
:10109000888785818F5F858325E02A9FC0012B9FEC
:1010A000900D1124E80FF91F8085DF91CF910895ED
:1010B00081E08887F1CF2770687B622B0FC06623A1
:1010C000E1F26770660F660F660F4423A1F3606458
:1010D00085818F5F85838770687F682B25E02A9FD5
:1010E000C0012B9F900D1124E80FF91F6087862FF8
:1010F000DCCFFC0121E0611102C006960895358520
:10110000631739F02F5F35962031C9F790E080E002
:101110000895069635E0239F800D911D11240895B2
:1011200090E080E00895DC01FB0112962C9112976B
:10113000848195812817190641F491818081813A33
:1011400031F49D7F81E0913009F080E00895813293
:10115000E1F79B3029F482811F968C9381E00895FA
:101160009A3099F7828150968C93F8CFDC01FB017D
:1011700088E4808389E4818384E482831D969C9142
:101180001D979F709F5B93831D968D919C9124E08A
:10119000969587952A95E1F78F708F5B848385E01C
:1011A0000895EF92FF920F931F93CF93DF93FB016C
:1011B0002081213871F52381223259F5DC01129604
:1011C0004C91248135814217130619F5EC010B85EA
:1011D0001C85F12CE12C0115110589F0F8014481E1
:1011E00055816281738180E80E947F018F3F98075B
:1011F00049F0E80EF91ED8010D911C91ECCF81E069
:101200008F87C701DF91CF911F910F91FF90EF90D2
:10121000089590E080E0F6CFCF93DF93CDB7DEB7AF
:1012200069970FB6F894DEBF0FBECDBFFC01DB019E
:101230008C918F5F8C939E012D5F3F4F8DE0D90184
:101240001D928A95E9F729E0298384E08A8391E059
:101250009D8383E08E832A8721E22B879C879D874D
:101260009F8722E2288B27E02B8B25E02C8B8E8B0F
:1012700020E430E0388F2F8B998F82818B83958586
:101280008685998B8A8B838180688D8B49E150E0BC
:10129000BE016F5F7F4F80E00E947F0169960FB6AD
:1012A000F894DEBF0FBECDBFDF91CF910895862F9A
:1012B000642F82300CF0815062300CF06150422F6C
:1012C0000C941B048091D30260956823861739F033
:1012D0006093D30240E060E080E00C941B0408952A
:1012E0008091D302682B861739F06093D30240E0D7
:1012F00060E080E00C941B040895CF92DF92EF929F
:10130000FF920F931F93CF93DF93EC0185E0C82EDC
:10131000D12CFF24F3948C818F21D8019C919F21A3
:10132000C9F181110AC08A819B81DC01ED91FC9198
:101330000190F081E02D6F2D0995FF0CB1E0CB1AE3
:10134000D10849F7F80180818C831F82188619869D
:101350001A8622812D83E480EE82F680F986078149
:101360000A8727FF22C030E050E040E02F5F3109BC
:1013700041095109A2E8BFEF0E94801B21E83FEF1D
:101380004FEF5FEF0E94531B215031094109510972
:101390002F830DC0882389F28A819B81DC01ED9126
:1013A000FC910280F381E02DC6CF2111F1CFE7FE41
:1013B00034C02E2D30E050E040E02F5F310941096C
:1013C0005109A2E8BFEF0E94801B21E83FEF4FEFD9
:1013D0005FEF0E94531B21503109410951092887B1
:1013E0006F814885611106C0411104C0F11002C02F
:1013F000002351F08A819B81DC01ED91FC910480F6
:10140000F581E02D2F2D0995DF91CF911F910F913F
:10141000FF90EF90DF90CF900895EE2009F3E886DB
:10142000DFCF2E9808952E9A0895FC018381806461
:101430000C948103EF92FF920F93FC01368D3230B2
:1014400018F0348D361302C00E9432150F91FF90B0
:10145000EF900895EF92FF920F9302970E941A0A5D
:101460000F91FF90EF9008950895EF92FF920F93E0
:101470001F93422F202F8701DC01ED91FC9100A0EA
:10148000F1A1E02D09951F910F91FF90EF90089524
:1014900081E00895FC0184A10895FC0186810895EE
:1014A00080E0089581E0089580E0089580E0089547
:1014B000089580E0089508950F931F93CF93DF93CD
:1014C000D82FC62F8A0180E591E00E9405010E9475
:1014D000110AD260DEBDF8018C2F882339F00DB4DB
:1014E00007FEFDCF91919EBD8150F7CFC00FD12F48
:1014F000D11D0DB407FEFDCF0E94130ACE01DF916E
:10150000CF911F910F9108950F931F93CF93DF9366
:1015100000D0CDB7DEB7182F062F80E591E00E94EE
:1015200005010E94110A126019830A8362E070E0CB
:10153000CE0101960E94E8070E94130A0F900F90B7
:10154000DF91CF911F910F9108958EBD00000DB4D2
:1015500007FEFDCF8EB50895CF93C82F80E591E0AB
:101560000E9405010E94110A8C2F0E94A50A80E0AA
:101570000E94A50AC82F0E94130A8C2FCF910895AC
:101580008F929F92AF92BF92CF92DF92EF92FF9293
:101590000F931F93CF93DF93882E962E5A010E94AC
:1015A0008F046B017C0128E8C20E23E1D21EE11CEE
:1015B000F11C10E000E0D0E0C0E098280E948F0409
:1015C0006C197D098E099F0997FF1EC0692D80EF58
:1015D0000E94840A0E948F046C197D098E099F095C
:1015E00097FF09C088EC0E94AC0A87FFF3CF60E840
:1015F00088EC0E94840A88EF0E94AC0AC82FCF7042
:10160000C43081F0CE30B9F08C2FDF91CF911F9193
:101610000F91FF90EF90DF90CF90BF90AF909F9091
:101620008F9008950F5F1F4FA114B10439F20A156E
:101630001B0521F6E9CFDF5FD33009F0BFCFE4CF40
:10164000AF92BF92CF92DF92EF92FF920F931F93D0
:10165000CF93DF93EC01B62EA42E69010E94790886
:101660007C0186EDE114F10409F447C0D701ED9146
:10167000FC91119787ED309709F43FC013969C9128
:1016800080E0981731F02081A21629F033968F5F01
:10169000F8CFF0E0E0E0D601ED93FC938BED3097CE
:1016A00061F1228126952695203108F02FE081E016
:1016B00090E0A0E0B0E004C0880F991FAA1FBB1FF4
:1016C0002A95D2F70197F801918380836B2D80EEE4
:1016D0000E94840A88ED0E94AC0AD70114969C915E
:1016E000682F697F992329F0CA58DF4F68816260AB
:1016F000682B88ED0E94840A80E0DF91CF911F91D2
:101700000F91FF90EF90DF90CF90BF90AF90089532
:1017100088EF0E94AC0A807C8034B1F018F48823F2
:1017200001F10895803819F0803CC9F0089588EDE2
:101730000E94AC0A81FD0DC069EC88ED0E94840A0C
:1017400082E080933802089588ED0E94AC0A81FD02
:10175000F3CF6BEC88ED0E94840A83E0F2CF81E046
:10176000F0CF61ED88ED0E94840A1092380208954E
:10177000CF92DF92FF920F931F93CF93DF93F62EBA
:1017800001E0C82FD0E0CC0FDD1FCB56DC4F6E013F
:1017900088819981DC01ED91FC910280F381E02D3B
:1017A0002F2D40E060E00995182F803E49F561E05B
:1017B00088EE0E94840A66E670E080E090E00E9475
:1017C0004F03F60180819181DC01ED91FC91019044
:1017D000F081E02D2F2D40E060E00995182F8D302D
:1017E00041F58FEF800F833088F061E088EE0E9432
:1017F000840A66E670E080E090E00E944F0310C02B
:101800008D3061F48FEF800F833050F464E670E028
:1018100080E090E00E944F030F5FBACF882389F2E7
:10182000812FDF91CF911F910F91FF90DF90CF908B
:1018300008958823A9F3D9CF2F923F924F925F92B8
:101840006F927F928F929F92AF92BF92CF92DF92D0
:10185000EF92FF920F931F93CF93DF937B013A0197
:101860006901F901A080B180FB013180F901118289
:101870001082FB01828160E181FD60E288EE0E94BE
:10188000840A2A2CA301F701608180E00E94C00A2B
:10189000582EF6E08F1310C088EF0E94AC0AF701B3
:1018A00092819D7F84FF9260928360E191FD60E26E
:1018B00088EE0E94840AE6CF811150C088EC0E9415
:1018C000AC0A82FF5FC080E30E94AC0A482E8A15F2
:1018D0001B0411F008F0422CF60180819181E50192
:1018E000C81BD90BD7FF02C0D0E0C0E0842C912CDC
:1018F0008C169D060CF4E40180E591E00E94050140
:101900000E94110A88E00E94A50AAE0170E060E022
:10191000C8010E94C11B209721F0BE01C8010E948E
:10192000E8070C0F1D1F0E94130A64E088EC0E9458
:10193000840AF60180819181880E991E91828082AD
:10194000431420F08A149B0408F49CCF88EF0E9473
:10195000AC0AF701928184FB91F99283852DDF9186
:10196000CF911F910F91FF90EF90DF90CF90BF909C
:10197000AF909F908F907F906F905F904F903F902F
:101980002F90089580EF582EE9CFAF92BF92CF925B
:10199000DF92EF92FF920F931F93CF93DF9300D0CC
:1019A00000D0CDB7DEB77C01690158011C821B82D3
:1019B0001A8219828E010F5F1F4F9E012D5F3F4FCC
:1019C0000E94200B811109C049815A816B817C8161
:1019D00085019601C7010E941C0C0F900F900F907B
:1019E0000F90DF91CF911F910F91FF90EF90DF90BB
:1019F000CF90BF90AF9008954F925F926F927F9279
:101A00008F929F92AF92BF92CF92DF92EF92FF920E
:101A10000F931F93CF93DF93CDB7DEB7C254D10995
:101A20000FB6F894DEBF0FBECDBFDC0194962C91AB
:101A300021111AC0612C862DCE5BDF4F0FB6F894B2
:101A4000DEBF0FBECDBFDF91CF911F910F91FF90F1
:101A5000EF90DF90CF90BF90AF909F908F907F904E
:101A60006F905F904F9008957C010E948F04F70162
:101A7000878C90A0A1A0B2A0681979098A099B0956
:101A800097FDD8CF0E948F04D70193962C91620FB7
:101A9000711D811D911DF701678F70A381A392A312
:101AA000712C6E01F1E4CF0ED11C30E4832E912C09
:101AB00057018AE5A80EB11CD7015D968C91781666
:101AC00008F0B8CFE72DF0E07296EE0FFF1FEE0F93
:101AD000FF1FEE0DFF1D8081E82FF0E0CF01880F82
:101AE000991FDC01AE0FBF1FAE0DBF1D96962C9146
:101AF00030E0D6012D933C93DE0111962D011D920D
:101B0000AC15BD05E1F7E80FF91FEE0DFF1D8201D1
:101B1000960145A1F7016681848195810E94C50CDB
:101B2000682E811188CFD6018D919C9111978134B7
:101B3000910510F08D929C92D701ED91FC9100A03F
:101B4000F1A1E02D8201D6012C91D5014C91B70174
:101B5000C7010995D701ED91FC910288F389E02D29
:101B6000D5018C9181116980662DC7010995009777
:101B700069F0DC01ED91FC910190F081E02D820192
:101B8000D6012C91D5014C91B7010995739494CF4E
:101B90003F924F925F926F927F928F929F92AF92FD
:101BA000BF92CF92DF92EF92FF920F931F93CF934A
:101BB000DF93CDB7DEB7C254D1090FB6F894DEBFBC
:101BC0000FBECDBFDC0194962C91222309F4A1C055
:101BD0006C010E948F04F601878C90A0A1A0B2A096
:101BE000681979098A099B0997FD93C00E948F049F
:101BF000D60193962C91620F711D811D911DF601E6
:101C0000678F70A381A392A3312C5E01F1E4AF0E24
:101C1000B11C46018AE5880E911CD6015D968C9117
:101C2000381608F076C0E32DF0E07296EE0FFF1F35
:101C3000EE0FFF1FEC0DFD1D6080662009F467C0EC
:101C4000712C7301EE0CFF1CF701E60DF71DEC0D76
:101C5000FD1D86A190E0F50191838083FE01319600
:101C60002F011192EA15FB05E1F7F701E60DF71DCB
:101C7000EC0DFD1D8201950145A1D60116966C91D2
:101C8000169714968D919C910E94C50C182F811166
:101C90003EC0F501808191810097C9F181349105A1
:101CA00020F080E490E091838083E60CF71CD6015D
:101CB000AE0DBF1DF60180819181FC01608C718C9D
:101CC0007201F5010081F401208195964C91B601D5
:101CD000C601F3010995D601ED91FC910288F389C3
:101CE000E02DD4018C9181111981612FC6010995D4
:101CF000009769F0DC01ED91FC910190F081E02DFD
:101D00008201D5012C91D4014C91B60109953394EF
:101D100084CF80E0CE5BDF4F0FB6F894DEBF0FBEFE
:101D2000CDBFDF91CF911F910F91FF90EF90DF908A
:101D3000CF90BF90AF909F908F907F906F905F906B
:101D40004F903F9008952F923F924F925F926F92E3
:101D50007F928F929F92AF92BF92CF92DF92EF923B
:101D6000FF920F931F93CF93DF93CDB7DEB76697A4
:101D70000FB6F894DEBF0FBECDBF3C01442E322E0D
:101D8000202EEA8ACE8AEBA4FCA4CDA4DEA41E8673
:101D90001D86188A1F868E01015F1F4F9E01235FDB
:101DA0003F4F0E94200B582E81113BC139822A825D
:101DB0002A892B833E893C83BE82AD8298868F829E
:101DC000AE014F5F5F4F68E080E20E945C0A4F8582
:101DD0005889642D80E10E94C00A811140C1C1145C
:101DE000D10409F453C00D851E85D80112968C913B
:101DF000129737FE51C0826012968C9354012224B0
:101E00002394A114B10409F42FC1FC86EB864F85FD
:101E100058896D857E8586019E01255F3F4FC301F0
:101E20000E941C0C582EB6E08B130EC088EF0E9447
:101E3000AC0AED85FE8585FB882780F98225928195
:101E400080FB91F99283DDCF8111EBC0EFA5F8A95A
:101E50003097A1F06B857C850190F081E02D019099
:101E6000F081E02DC4018A199B099A8789879E0118
:101E7000275F3F4FA6018FA598A909958B859C8563
:101E8000A81AB90A8E159F0508F0BBCF4F8558894F
:101E900037FEE1C080EAE0C0816012968C93129711
:101EA00011968C908FEF880D803408F0DAC02F8463
:101EB00038880E948F049B01AC0128573C4E4F4F3D
:101EC0005F4F2A8B3B8B4C8B5D8BD80112968C918C
:101ED00060E880FF60E488EE0E94840A512C912C17
:101EE000E114F10409F48CC03401E814F90408F495
:101EF00037016E8AA601662D80E10E945C0A662D7C
:101F000088E30E94840AF8016081606280EF0E9489
:101F1000840A88EC0E94AC0A87FFFBCF60E888EC5B
:101F20000E94840A88EF0E94AC0A8F70582E198A8A
:101F3000B12CA12C552021F10E948F042A893B89C4
:101F40004C895D89621B730B840B950B97FF18C03E
:101F500036E0531609F440C04EE05416B1F054E098
:101F6000551209C08FEFA81AB80A2114310491F054
:101F70002A143B0479F460E088E30E94840A42C09A
:101F8000E618F708C60CD71CABCF99899F5F998BD1
:101F9000933089F360E088E30E94840AD6016C9153
:101FA00080E10E94840A6E8988E30E94840AF80115
:101FB0006081606280EF0E94840A88EC0E94AC0A13
:101FC00087FFFBCF60E888EC0E94840A88EF0E94BC
:101FD000AC0A8F70582EAECF88EF0E94AC0A85FBFA
:101FE000882780F9A1E08A27F801928180FB90F987
:101FF000928360E890FF60E488EE0E94840ACACF72
:102000005110B9CF88EF0E94AC0AD80112969C916A
:10201000129785FB90F912969C934F85588955200D
:10202000D1F0852D66960FB6F894DEBF0FBECDBFFA
:10203000DF91CF911F910F91FF90EF90DF90CF90A4
:10204000BF90AF909F908F907F906F905F904F90D8
:102050003F902F90089580E8642D0E94C00A582E6A
:10206000E0CF8AED582EDDCF4F855889552009F4F1
:1020700011CFD7CF8F929F92AF92BF92CF92EF9214
:102080000F93CF931F921F921F921F921F921F9226
:10209000912C812CB12CA12CC12CE62E05E020E046
:1020A00040E060E00E94A30EC82F6CE271E080E087
:1020B00090E00E944F030F900F900F900F900F90A1
:1020C0000F908C2FCF910F91EF90CF90BF90AF904A
:1020D0009F908F9008958F929F92AF92BF92CF92D0
:1020E000EF920F931F921F923F932F935F934F9303
:1020F0004A01B12CA12CCC24C394E12C06E020E8A9
:1021000040E00E94A30E0F900F900F900F900F9041
:102110000F900F91EF90CF90BF90AF909F908F90C6
:1021200008952F923F924F925F926F927F928F927B
:102130009F92AF92BF92CF92DF92EF92FF920F9356
:102140001F93CF93DF93CDB7DEB7C158D1090FB638
:10215000F894DEBF0FBECDBFDC0116963C9119EDA1
:10216000311114C0B22EA42E162F3C01FC01E480C4
:10217000F580D701ED91FC910190F081E02D60E0B8
:10218000C70109952C010097E1F416ED812FCF5777
:10219000DF4F0FB6F894DEBF0FBECDBFDF91CF91FA
:1021A0001F910F91FF90EF90DF90CF90BF90AF9075
:1021B0009F908F907F906F905F904F903F902F9067
:1021C0000895FC01C080D180C114D10409F4BAC1C2
:1021D0001301F5E22F0E311CDC0111963C922E9278
:1021E0001496BC929E0126593F4F48E050E060E0B3
:1021F000F301848195810E946B10082F8111A6C183
:10220000AB960FADAB97D201CD92DC92D701ED9199
:10221000FC910280F381E02D2A2D40E0612FC7015F
:102220000995F301868314ED882309F4AFCFE29674
:102230009FADE29796A3682F848195810E943A1002
:10224000182FD701ED91FC91D20114961C9288238E
:1022500059F00480F581E02DD30116966C91C701E9
:102260000995F301168292CF0190F081E02DD30100
:1022700016966C91C7010995009709F486CFFC0169
:10228000B48201111CC0E4968EAD9FADE497F301BA
:10229000E35AFF4F91838083E6968EAD9FADE6971C
:1022A000329791838083D30114968D919C911597D9
:1022B00016960C9121143104E9F408ED11C0033194
:1022C00008F002E1402F50E09E0126593F4FF301F4
:1022D0006681848195810E946B10082F882399F272
:1022E000D301ED91FC910480F581E02DC3010995A6
:1022F000102F4CCF602F0E947908FC01892B09F424
:102300001DC1EC96DFACEC9702833182208281E024
:1023100083832E01F1E44F0E511CC3010296C05875
:10232000DF4F99838883C058D040D2015096EE96F3
:10233000BFAFAEAFEE971D1509F47EC083E291E00A
:10234000F20191838083C058DF4FA881B981C058C2
:10235000D040B383A2831482118612861586178615
:10236000168610A211A212A210A6EE968EAD9FADF7
:10237000EE97968385839087878394878387D3019D
:1023800014960D90BC91A02DC258DF4FB983A8833D
:10239000CE57D040F301F6801F921F9281E090E06B
:1023A0008C0F9D1F9F938F931F9299E09F9339E00D
:1023B000832E912CB12CA12C42E0C42EE12E06E0FC
:1023C00020E840E06F2DC258DF4F88819981CE57B9
:1023D000D0400E94A30E082F0F900F900F900F90E7
:1023E0000F900F9081117CCF8B809C805F924F92D9
:1023F000A1E0B0E0AC0FBD1FBF93AF931F92B0E45C
:10240000BF9306E020E840E06F2DC258DF4F88817F
:102410009981CE57D0400E94A30E082F0F900F90A5
:102420000F900F900F900F9081115ACFF301868D6E
:10243000823010F41F5F7FCFD3015E961C915E97B0
:10244000123008F481C016960C911697602F1496DE
:102450008D919C910E947908FC01892B21F00283C7
:102460003182208213831F921F921F921F921F920C
:102470001F92912C812CB12CA12CC12CF301E48C46
:1024800009E020E040E06681848195810E94A30EEE
:10249000182F0F900F900F900F900F900F908111A9
:1024A0004FC0F12CD3015D968C915D97F816D8F54D
:1024B0008F2D90E0FC017296EE0FFF1FEE0FFF1FB5
:1024C000E60DF71D2081211102C0F394EBCFFC0132
:1024D000EE0FFF1FEE0FFF1FE60DF71DEA5BFF4F2C
:1024E00080818770A82EB12C1F921F921F921F927D
:1024F0001F921F92912C812CC12CE12C0AE021E229
:1025000040E0F3016681848195810E94A30E082F2B
:102510000F900F900F900F900F900F908823A9F2BB
:10252000853099F2DDCEED91FC910688F789E02D9A
:10253000C301099581E0F30184A328CE06EDD0CE36
:10254000082FCECE17ED22CE11ED20CEF201D18292
:10255000C082C6CE0E94BC1B1F920F920FB60F9274
:1025600011248F939F938091E1009091E100937FDC
:102570009093E10083FF0FC01092E90091E09093E7
:10258000EB001092EC0092E39093ED001092370272
:1025900098E09093F00082FF22C093E09093E900CE
:1025A0009091F200992319F09AE39093E8009091AA
:1025B000ED01992341F09091ED0191509093ED013F
:1025C000911101C05D9A90913602992341F090914A
:1025D0003602915090933602911101C0289A84FFDF
:1025E00018C08091E2008E7E81608093E20080912D
:1025F000E1008F7E8093E1008091EE018E7E80610C
:102600008093EE019F918F910F900FBE0F901F90BE
:10261000189580FFF7CF8091E2008E7E80618093D5
:10262000E2008091E1008E7E8093E1008091EE01D6
:102630008E7E8160E5CF1F920F920FB60F9211240C
:10264000EF92FF920F931F932F933F934F935F93BC
:102650006F937F938F939F93AF93BF93EF93FF936A
:10266000CF93DF93CDB7DEB76E97DEBFCDBF1092AD
:10267000E9008091E80083FF25C068E0CE0145961F
:102680000E94B60182EF8093E8008D8987FF37C0F2
:102690009091E80090FFFCCF982F907609F033C11D
:1026A0009E894F89588D2F89F88C91112FC08038C1
:1026B00051F58091EF018093F1001092F1008EEFBF
:1026C0008093E8006E960FB6F894DEBF0FBECDBFC4
:1026D000DF91CF91FF91EF91BF91AF919F918F913A
:1026E0007F916F915F914F913F912F911F910F912A
:1026F000FF90EF900F900FBE0F901F9018959EEFD8
:102700009093E800C9CF1092F100D7CF913059F4DF
:102710008111D5CF4130510591F68091EF018D7F28
:102720008093EF01CCCF933049F48111C8CF413071
:10273000510529F68091EF018260F2CF953041F486
:102740008091E80080FFFCCF20682093E300B7CFA2
:10275000963009F0AAC00B8D1C8D82E01092E90022
:102760001092EC011092EB01F8122EC01092EA01C7
:102770001092E9010E9437021F8299E09983FA8240
:1027800091E09E8390EA988792E399872091EB01EC
:102790003091EC01275F3F4F3C832B838D83109258
:1027A000E9001092EC011092EB011093EA01009302
:1027B000E90149E050E0BE016F5F7F4F80E00E9479
:1027C0007F010E9437027BCF1093EA010093E90159
:1027D0000E942302DC0112960D911C910115110536
:1027E00009F4BDC0D801ED91FC910480F581E02D84
:1027F000BE016B5E7F4FC8010995009709F0AAC022
:10280000F80100851185EACFF3E0FF120EC08F8931
:10281000882309F441C0823061F440E861E183EF2C
:1028200090E00E94FF1481114ACF81E28093EB0077
:1028300049CF813029F440E864E18EED90E0F1CF9A
:10284000833099F70E942302DC0112960D911C91AE
:10285000FE0131967F010115110579F0D801ED9146
:10286000FC910680F781E02DB701C8010995E80EBB
:10287000F11CF80100851185EECFD7011C9280E391
:1028800090E09E8F8D8FCE014D960E944A1B40E0B6
:10289000682FCE014D96C5CF68EC70E0FB014491E6
:1028A00050E080E80E947F010ACF973009F4BDCF45
:1028B000983021F481E08093F10001CF993009F044
:1028C000FECE837009F0B1CFEDE0F1E081E031E0C0
:1028D00096E32191222371F08093E9003093EB007D
:1028E000DF0111972C912093EC009093ED008F5F06
:1028F000873079F78EE78093EA001092EA008F899B
:1029000080933702DCCE8B8D9C8D1092E900109263
:10291000EC011092EB019093EA018093E9010E948F
:102920002302DC0112960D911C910115110509F489
:102930007CCFD801ED91FC910190F081E02DBE019A
:102940006B5E7F4FC80109958111B9CEF8010085F2
:102950001185EBCF181619060CF4B1CE66CFF1E055
:10296000FF1252CF6CEC70E099CF1F920F920FB60E
:102970000F9211242F933F938F939F93AF93BF9305
:102980008091D5019091D601A091D701B091D80145
:102990003091D40123E0230F2D3758F50196A11D66
:1029A000B11D2093D4018093D5019093D601A093BB
:1029B000D701B093D8018091D9019091DA01A0910B
:1029C000DB01B091DC010196A11DB11D8093D901FD
:1029D0009093DA01A093DB01B093DC01BF91AF913A
:1029E0009F918F913F912F910F900FBE0F901F904D
:1029F000189526E8230F0296A11DB11DD2CFEF92A4
:102A0000FF920F931F93CF93DF93F82E192FE62E8B
:102A1000042F81E0860F880F0E94510183E00E94FD
:102A20005101CF2DD12FEC0EFD2EF11CCE15DF055F
:102A3000B9F007FF13C0FE0184910E945101182FC5
:102A400080E00E945101812321968111EFCFDF9117
:102A5000CF911F910F91FF90EF9008958881EDCF56
:102A600081E0F5CF6F927F928F929F92AF92BF924B
:102A7000CF92DF92EF92FF920F931F93CF93DF934A
:102A8000EC01842F6C8F4D8D70E060E0A82EB12C8E
:102A9000822E912C602E712C641770F565307105B3
:102AA00059F1DB01AA0FBB1FAA0FBB1FFE01EA0FE2
:102AB000FB1FEA5BFF4F9081392F37703A151B04DB
:102AC00009F087C0392F3695369536953770381509
:102AD000190409F07EC09295969596959370961577
:102AE000170409F076C06E0196E4C90ED11CCA0E17
:102AF000DB1EC114D104F9F4453008F05BC0A4E03A
:102B00004A9FA00111246E01B6E4CB0ED11CC40E65
:102B1000D51E2770220F220F220F982F9770292B76
:102B2000902F9295990F990F907C292BF601208375
:102B30009D8D9F5F9D8FD70113969C9113979370E6
:102B400010E0933029F412969C9112E097FD11E069
:102B5000402F682FE881F981068CF78DE02DCE019A
:102B60000995882339F1112329F18E8D8B3010F5C9
:102B7000282F30E0F901EE0FFF1FE20FF31FEC0FDB
:102B8000FD1FD70112969C9112979F7095A31496E2
:102B90009C91149796A394E097A3C10ED11CF601C3
:102BA000818316968C919BA1981708F48BA38E8D28
:102BB0008F5F8E8FDF91CF911F910F91FF90EF90DC
:102BC000DF90CF90BF90AF909F908F907F906F904D
:102BD00008956F5F7F4F60CFEF92FF920F93029740
:102BE0000E9432150F91FF90EF900895CF93DF93DD
:102BF00010923C0210923B0288EE93E0A0E0B0E01D
:102C000080933D0290933E02A0933F02B093400216
:102C100029E231E030933A02209339022FEF3FEF5F
:102C20003093460220934502C1E0C0938D02C093C9
:102C30008E022FE932E03093900220938F0210929F
:102C40009202109291021092960210929502809335
:102C5000970290939802A0939902B0939A028BE303
:102C600091E090938A028093890283E591E09093AA
:102C7000940280939302C093A002C093A102109289
:102C8000A3021092A2021092A5021092A402109226
:102C9000A9021092A8021092AB021092AA0281EC33
:102CA00080939F020E94230269E872E00E94600202
:102CB0001092D3028091CB02811112C01092C602F1
:102CC0001092C5028EE791E09093C8028093C702EC
:102CD00086E390E09093CA028093C902C093CB022E
:102CE0008091BD0281112CC0C1E0C093B002C0939D
:102CF000B10286EB92E09093B3028093B2021092FD
:102D0000B5021092B40285E691E09093AD028093F3
:102D1000AC021092B8021092B7021092BA0210924E
:102D2000B902C093BB02C093BC0281EC8093B6028F
:102D30000E9423026CEA72E00E946002C093BD020E
:102D4000E091B702F091B802309709F006C185EC26
:102D500092E09093B8028093B7028091B90290916B
:102D6000BA022091C9023091CA02820F931F909338
:102D7000BA028093B9028DEC91E090934003809366
:102D80003F031092470381E0809348031092490368
:102D900081E493E0909346038093450310924103AE
:102DA00088E0809342038CE38093430310924403B2
:102DB000EFE3F3E021E081E493E0158626871786B0
:102DC00094878387359633E0EA38F307B1F710929A
:102DD000B50381E18093D4028FE393E09093E50201
:102DE0008093E40287E791E09093E1028093E00210
:102DF0008BE991E09093E3028093E2021092FF024C
:102E00001092000310920103109202031092030328
:102E10001092040310923A031092E7021092E90212
:102E20001092E8021092EA021092EC021092EB0269
:102E30001092ED021092EF021092EE021092F00248
:102E40001092F2021092F1021092F3021092F50227
:102E50001092F4021092F6021092F8021092F70209
:102E60001092F9021092FB021092FA02E7E2F3E0EC
:102E700090E080E0DC01AA0FBB1FAA0FBB1FAA5D78
:102E8000BC4F2C9128732C9310821182019634969A
:102E90008530910579F7A0EEB2E090E080E095965C
:102EA0001C929597382F28E0811120E096962C935C
:102EB0009697FC01EE0FFF1FEF01C80FD91FC95FE6
:102EC000DC4F28812E7F2D7F288331114FC03FE0BA
:102ED000E80FF91FE95FFC4F330F330F2081237098
:102EE000232B2083019613968B309105C1F681E048
:102EF0008093FE021092FD021092FC02E5E9F3E0DD
:102F000090E080E021913191232B91F5880F991F5A
:102F1000FC01EB56FC4F80EE92E09183808381EAC6
:102F200091E09093E1028093E00287EC91E090932E
:102F3000E3028093E20281E791E09093D6028093CE
:102F4000D50283E191E09093D8028093D70210924A
:102F5000D902DF91CF910895FC0180819181009782
:102F6000D9F785EC92E091838083F7CE31E0B0CF42
:102F700001968031910531F6D2CFCF93DF93CDB753
:102F8000DEB765970FB6F894DEBF0FBECDBF78945D
:102F900084B5826084BD84B5816084BD85B582605E
:102FA00085BD85B5816085BD80916E00816080930F
:102FB0006E00109281008091810082608093810078
:102FC0008091810081608093810080918000816088
:102FD0008093800080919100826080939100809125
:102FE0009100816080939100809190008160809336
:102FF00090008091C10084608093C1008091C100E5
:1030000082608093C1008091C10081608093C10083
:103010008091C30081608093C3008091C000826072
:103020008093C0008091C20081608093C200809133
:103030007A00846080937A0080917A008260809325
:103040007A0080917A00816080937A0080917A0082
:10305000806880937A00109237021092EF011092EC
:10306000EE018091D70081608093D70080EA809341
:10307000D80089B5806189BD89B5826089BD09B4F0
:1030800000FEFDCF61E070E080E090E00E944F0321
:103090008091D8008F7C80618093D8008091E0007F
:1030A000807F8093E0008091E1008E7E8093E1003C
:1030B0008DE08093E200559A209A85EF91E09093FD
:1030C000A7028093A60280E490E09093A3028093ED
:1030D000A2021092A5021092A402269A0E94130A3C
:1030E0001FB7F8948091F00181115AC041E551E079
:1030F000FA01949120E731E0F9018491E92FF0E0A1
:10310000EE0FFF1FEE5CFE4FA591B4919C918923B9
:1031100009F037C0E6E1F1E09491F9012491FA0158
:103120008491882309F42DC09923E9F091509F30B0
:10313000D0F4E92FF0E0E156F74E0C94B61B3D19A0
:103140004119AE1835193919B318B318B318441901
:103150004A194E1952195819B3185C1990918000E8
:103160009F7790938000E82FF0E0EE0FFF1FEC5D5B
:10317000FE4FA591B4918FB7F8949C91292B2C9375
:103180008FBF81E10E9408018CB580618CBD8CB538
:1031900080648CBD8FE00E94080180E10E940801DC
:1031A0008091F0018F5F8093F0011FBF209A289AD1
:1031B000259868E188E80E94840A60E288E70E9416
:1031C000840A60E088E70E94840A10E000E088E654
:1031D0000E94AC0A0F5F1F4F80FF74C061EC88ED46
:1031E0000E94840A60E680ED0E94840A64E088EE12
:1031F0000E94840A88EE0E94AC0A82FFFBCF0E94E4
:10320000880B60E288EC0E94840A61E080E80E94FA
:10321000840A45ED52E060E080EE92E00E9474077F
:103220003E0183E1680E711C01E083B1182F10721A
:1032300085FD0CC088EC0E94AC0A85FF03C00E948B
:10324000880B10E2612F88EC0E94840A809138027A
:10325000813009F442C008F444C0823009F49DC0B2
:10326000833009F448C010E05DC0909180009F7DDC
:1032700078CF90918000977F74CF94B59F7794BD5D
:1032800072CF94B59F7DFBCF909190009F779093E4
:10329000900069CF909190009F7DF9CF9091900020
:1032A000977FF5CF9091C0009F779093C0005BCF40
:1032B0009091C0009F7DF9CF9091C200977F90932D
:1032C000C20051CF0F3F100709F081CF68EC70E0CA
:1032D00080E090E00E944F039CCF93E19093D40252
:1032E000C2CF8091D402807F803109F4BCCFA1E1AC
:1032F000A093D402B8CF11E08091D402807F8031B6
:1033000089F40E948F0468537F4F8F4F9F4F6093C3
:10331000F1017093F2018093F3019093F401B0E214
:10332000B093D40295E9E92E93E0F92E6701F601F6
:10333000819191916F01009739F0DC01ED91FC9141
:103340000680F781E02D0995E5EBF3E0EC15FD052E
:1033500071F78091D402803409F456C000F58032B0
:10336000E9F1803309F44AC0813109F05DC010925F
:10337000B503D7018D919D917D01009739F0DC0156
:10338000ED91FC910480F581E02D0995CE14DF04C8
:1033900081F782E18093D40247C010E0ADCF813540
:1033A00009F464C0803809F474C08035E9F588EC0C
:1033B0000E94AC0A86FF38C081E58093D4020E9447
:1033C0008F046C5E7F4F8F4F9F4F6093F10170931E
:1033D000F2018093F3019093F40126C00E948F04C0
:1033E000C090F101D090F201E090F301F090F4016F
:1033F0006C197D098E099F0997FD16C061E088EE62
:103400000E94840A80E4C6CF88EE0E94AC0A80FD48
:103410000BC088ED0E94AC0A682F686088ED0E949E
:10342000840AB0E5B093D4028091A4029091A502E1
:10343000181619069CF48091F501853E09F01DC10E
:1034400040E450E065EF71E089E892E00E94150ADF
:10345000009335021092A5021092A40280E090E041
:10346000892B09F4E2CE0E940000DECE0E948F0478
:103470008090F1019090F201A090F301B090F401DE
:10348000681979098A099B0997FDCECF80E8809356
:10349000D4021B8AE8E0EC8BFCE3FD8BC090450373
:1034A000D0904603709246036092450310934903FF
:1034B0009E012F5F3F4F42E150E060E08FE393E0D9
:1034C0000E946B10582ED0924603C0924503811182
:1034D00051C0A984BA848B849C843D802E8085E968
:1034E000C82E83E0D82E412CD6018D919C91009757
:1034F00009F042C04394B2E0CB0ED11CE0E14E1281
:10350000F3CFF70180819181009709F079C053943E
:10351000F2E0EF0EF11C80E15812F3CF80914503E9
:1035200090914603892B09F459C01093490320E078
:1035300040E060E08FE393E00E942408F82E8823A7
:1035400009F44CC0682F8FE393E00E94790800973C
:1035500009F444C0FC0114836F2D8FE393E00E94B3
:103560003A10582E882309F486C06F2D8FE393E01C
:103570000E940208852D2FC0DC01ED91FC91008492
:10358000F185E02D09958111B5CFF60180819181FA
:10359000DC01ED91FC910088F189E02D622D099507
:1035A000882309F4A7CFF60180819181DC01ED9198
:1035B000FC910484F585E02DA401B50109958823CB
:1035C00089F0612F842D0E94B80B813D09F492CFC0
:1035D000882309F450C0823D09F426CFF0EAF09325
:1035E000D40222CFF60180819181DC01ED91FC9122
:1035F0000684F785E02D632D09958111E2CF7ACFFE
:10360000DC01ED91FC910084F185E02D099581119B
:103610007ECFF70180819181DC01ED91FC910088E2
:10362000F189E02D622D0995811109C0612F852D49
:103630000E94B80B982F977F913D51F668CFF70104
:1036400080819181DC01ED91FC910484F585E02D70
:10365000A401B501099581115ACFF70180819181AB
:10366000DC01ED91FC910684F785E02D632D099531
:103670008823E1F24CCF80E98DCE809135028823FA
:1036800009F4E8CE40E06091F7018091F6010E94D4
:103690001B04E0CEFC0105900020E9F78095909591
:1036A0008E0F9F1F0895052E97FB1EF400940E9415
:1036B0006A1B57FD07D00E94851B07FC03D04EF400
:1036C0000C946A1B50954095309521953F4F4F4F74
:1036D0005F4F089590958095709561957F4F8F4FBE
:1036E0009F4F08950E94A71BA59F900DB49F900D1A
:1036F000A49F800D911D11240895B7FF0C94721B97
:103700000E94721B821B930B0895A1E21A2EAA1B22
:10371000BB1BFD010DC0AA1FBB1FEE1FFF1FA21781
:10372000B307E407F50720F0A21BB30BE40BF50B7E
:10373000661F771F881F991F1A9469F76095709507
:10374000809590959B01AC01BD01CF010895A29F8A
:10375000B001B39FC001A39F700D811D1124911D65
:10376000B29F700D811D1124911D0895EE0FFF1F52
:103770000590F491E02D099481E090E0F8940C9488
:10378000C81BDC0101C06D9341505040E0F7089523
:04379000F894FFCFDB
:10379400FFFFFFFF00E100000000000000C1808186
:1037A40000000019010000000070096209570900B7
:1037B400000000FC0500000000A8027904C902BE54
:1037C400021003CE02EC02000000009B040D05F081
:1037D40004BA05B2058D05710570055605150AF67E
:1037E400FF00006C05F60190086F05AA05A7058A7D
:1037F400050000000093080C09D108B60800000079
:10380400007D09000000009110590A3D07C80D4DC4
:103814000A580A560A540A520A56077407500A9557
:10382400074A0A3215AA12FEFF0000EC1500000038
:10383400009110590A3D07FC0C4D0A580A560A54C7
:103844000A520A56077407500A350A4A0A1A0A48DD
:103854000A340AFEFF00002A0A0000000079082446
:04386400080208004E
:00000001FF
