:100000000C94DC000C9404010C9404010C94040185
:100010000C9404010C9404010C9404010C9404014C
:100020000C9404010C9404010C94B9170C94281836
:100030000C9404010C9404010C9404010C9404012C
:100040000C9404010C9404010C9404010C9404011C
:100050000C9404010C9404010C9404010C94C21936
:100060000C9404010C9404010C9404010C940401FC
:100070000C9404010C9404010C9404010C940401EC
:100080000C9404010C9404010C9404010C940401DC
:100090000C940C1A0C9404010C9404010C940401AB
:1000A0000C9404010C9404010C94040106C0FF0A92
:1000B000000CA1017508150026FF0095400901817B
:1000C00002954009029102C00000000200090F00E1
:1000D00000030401000C000000000000000000000C
:1000E00000000000000000040309041201000200E7
:1000F0000000403A09002500010102000150697822
:1001000061727420496D6167696E672C20496E6366
:100110002E00555342204F50544943414C204D4FDF
:100120005553450000000000250028002B002E003C
:10013000310000000000240027002A002D003000BC
:10014000040404040403040502020202040302027C
:10015000020206060606060604040202020404045D
:1001600008020110408040102040804080080204B6
:100170000180402010020110801020404020050125
:100180000902A1010901A10085010509190129033D
:1001900015002501950375018102950175058103FF
:1001A00005010930093109381581257F7508950346
:1001B0008106C0C05A1BBD1F11241FBECFEFDAE05D
:1001C000DEBFCDBF23E0A6ECB1E001C01D92A43F8D
:1001D000B207E1F711E0A0E0B1E0E4E2F4E402C02C
:1001E00005900D92A63CB107D9F710E0CBEDD0E019
:1001F00004C02197FE010E940620CA3DD107C9F71D
:100200000E94371D0C9405220C9400008CBD9DBDEE
:10021000089590E0FC01E15AFE4F2491805C9E4FCE
:10022000FC018491882399F090E0880F991FFC01CC
:10023000EE5CFE4FA591B491FC01EC5DFE4F859103
:1002400094918FB7F894EC91E22BEC938FBF0895C3
:10025000FC018091A502882311F13FB7F89482E058
:100260008093E9002091F200822F90E01816190681
:1002700014F481E090E0882339F0289844E6409314
:10028000A4024091F1004083222339F02091F20032
:10029000211103C02BE62093E8003FBF08958FEFA4
:1002A0009FEF0895089540914F0250915002209180
:1002B0004D0230914E0242175307B4F49091E8007A
:1002C0009570E1F39091E80092FD19C08093F100E0
:1002D00080914F029091500201968F739927892B3C
:1002E00019F48EEF8093E80080914F0290915002B4
:1002F00001969093500280934F0281E0089580E030
:100300000895DF92EF92FF920F931F93CF93DF93A5
:10031000D82E8A01EB017B01E40EF51ECE15DF0518
:1003200059F0D7FE12C0FE0184910E94530121961C
:100330008111F4CF0FEF1FEFC801DF91CF911F9113
:100340000F91FF90EF90DF9008958881EECF2FB747
:10035000F89487708093E9009091E800892F80726B
:1003600095FF04C09091F20080E4891B2FBF08958F
:10037000615030F02091F100FC0120830196F8CF0C
:10038000289884E68093A4020895AF92BF92DF92EA
:10039000EF92FF920F931F93CF93DF935C018B013A
:1003A000EB019BEFD92E2097C1F07E01C134D1051E
:1003B0001CF080E4E82EF12C8091E80082FFFCCF55
:1003C000C8018C1B9D0B6E2D8A0D9B1D0E94B801D0
:1003D000D092E800CE19DF09E6CFC801DF91CF91B6
:1003E0001F910F91FF90EF90DF90BF90AF90089515
:1003F000AF92BF92CF92DF92EF92FF920F931F9333
:10040000CF93DF936C017B018B01040F151FEB0170
:100410005E01AE18BF08C017D10759F06991D60127
:10042000ED91FC910190F081E02DC6010995892B99
:1004300079F7C501DF91CF911F910F91FF90EF9058
:10044000DF90CF90BF90AF900895809145028111C9
:100450000DC082E08093410284E0809342021092BA
:1004600044021092430281E08093450281E492E0CD
:1004700008950F931F93CF93DF931F92CDB7DEB7ED
:1004800019820E942502DC0112960D911C91011522
:10049000110589F0D801ED91FC910280F381E02DE6
:1004A000BE016F5F7F4FC801099597FD04C0F80139
:1004B00000851185ECCF89810F90DF91CF911F913D
:1004C0000F910895CF93DF93FC01DB018181149696
:1004D0003C911497682F630F7727771F6830710559
:1004E0009CF5C281D381209739F5B383A283908193
:1004F00012969C93129713968C93139715968C9142
:100500001597890F808390E080E0831708F521819B
:10051000C22FD0E0BE01645F7E4F16964D915C9174
:100520001797480F591FEA014881EB0148832F5F55
:1005300021830196EACFEA01488559854115510585
:10054000D1F7B987A887D3CF80E0DF91CF91089505
:1005500081E0FBCFCF93DF931F92CDB7DEB76983E6
:10056000DC01ED91FC910280F381E02D41E050E04F
:10057000BE016F5F7F4F09950F90DF91CF91089576
:1005800083E08093E9008091F200882319F08AE3E8
:100590008093E800089583E00E94A70190E0089509
:1005A000CF93DF931F92CDB7DEB7FC01848595858D
:1005B00097FD08C02FEF3FEF358724870F90DF911D
:1005C000CF910895CE0101960E942801019719F458
:1005D000898190E0F3CF8FEF9FEFF0CF0F931F93C0
:1005E000CF93DF931F92CDB7DEB78C01FC018485DA
:1005F000958597FF0BC0CE0101960E9428010197B7
:1006000071F4898190E0F80195878487F8018485E9
:1006100095850F90DF91CF911F910F9108958FEFE6
:100620009FEFF1CFFC018485958597FD0BC09FB7A7
:10063000F89482E08093E9008091F2009FBF90E0FF
:10064000019608959FB7F89482E08093E900809125
:10065000F2009FBF90E00895282F30E0F901E853A1
:10066000FF4F9491F901E15AFE4F8491205C3E4F77
:10067000F9012491222309F430C09923E9F0915023
:100680009F30D0F4E92FF0E0E85BFC4F0C9406209B
:1006900076037A0357036E0372035C035C035C0307
:1006A0007D03830387038B0391035C039503909180
:1006B00080009F7790938000E22FF0E0EE0FFF1F05
:1006C000EC5DFE4FA591B4919FB7F894EC91611148
:1006D00032C080958E238C939FBF089590918000A7
:1006E0009F7DE8CF90918000977FE4CF94B59F776E
:1006F00094BDE2CF94B59F7DFBCF909190009F7702
:1007000090939000D9CF909190009F7DF9CF9091D8
:100710009000977FF5CF9091C0009F779093C00095
:10072000CBCF9091C0009F7DF9CF9091C200977F71
:100730009093C200C1CF8E2BCECF3FB7F89480915B
:100740003D0290913E02A0913F02B091400226B539
:10075000A89B05C02F3F19F00196A11DB11D3FBFF9
:10076000BA2FA92F982F8827BC01CD01620F711DC8
:10077000811D911D42E0660F771F881F991F4A95C2
:10078000D1F708958F929F92AF92BF92CF92DF924E
:10079000EF92FF924B015C010E949D036B017C0173
:1007A0000E949D036C197D098E099F09683E734064
:1007B00081059105A8F321E0821A9108A108B108EA
:1007C00088EEC80E83E0D81EE11CF11C8114910450
:1007D000A104B10429F7FF90EF90DF90CF90BF9074
:1007E000AF909F908F9008957F928F929F92AF923B
:1007F000BF92CF92DF92EF92FF920F931F93CF930E
:10080000DF93C82E8B017A018091A502811110C05F
:100810008FEF9FEFDF91CF911F910F91FF90EF909E
:10082000DF90CF90BF90AF909F908F907F90089572
:100830008091520280FF05C08091E0008260809329
:10084000E000CE2DDF2DD12C8AEFB82E8C2D8770B5
:10085000982E8C2D8072882E8C2D8074782E9AE3A1
:10086000A92E209719F4DD2009F452C08C2D0E9486
:10087000A70181110AC0BA94BB2051F261E070E077
:1008800080E090E00E94C203ECCF8C171D0611F0AF
:100890000CF08C2F9FB7F8949092E9002091E8001B
:1008A00025FD02C09FBFDDCF282F30E0C21BD30B38
:1008B000882029F08150A0F01092F100FBCFF801C0
:1008C000C7FC0AC0815050F041914093F100FACF2B
:1008D00044914093F10031968150D0F7020F131FDD
:1008E000DD2021F0A092E800D12CDCCF8091E8003F
:1008F00085FD07C0A092E800DD24D394209791F2F3
:10090000F3CF209779F6772069F2A092E800CACF5A
:100910005D9884E680935102C7017CCF1F93CF93EB
:10092000DF9300D000D01F92CDB7DEB79091410386
:1009300099838A836B831C8280912B0381112CC045
:1009400011E010931E0310931F0384E293E0909331
:10095000210380932003109223031092220385E643
:1009600091E090931B0380931A0310922603109238
:100970002503109228031092270310932903109344
:100980002A0381EC809324030E9425026AE173E02C
:100990000E94620210932B0381E08D8341E050E0BE
:1009A000BE016B5F7F4F80911D030E94F40397FD92
:1009B0000AC080911D0344E050E0BE016F5F7F4F8D
:1009C00080640E94F4030F900F900F900F900F908F
:1009D000DF91CF911F9108959091410380958923D4
:1009E000981731F08093410360E080E00C948E040E
:1009F000089590914103892B981731F0809341031A
:100A000060E080E00C948E040895CF93DF93EC01B6
:100A100080910B01882331F083E00E94F4031816C3
:100A2000190634F081E090E09B838A8380E090E0B7
:100A3000DF91CF9108952FB7F894609139027091AA
:100A40003A0280913B0290913C022FBF08950F9390
:100A50001F93CF93DF93EC01FB012A818481958161
:100A60002817190641F491818081813A31F49D7FE4
:100A700081E0913049F080E007C08132E1F79B309E
:100A800041F482818F8B81E0DF91CF911F910F9193
:100A900008959A3019F48381888FF5CF993059F7EA
:100AA000068117818381833081F489A19AA1081777
:100AB000190709F7B8018F8D98A10E94C50189A176
:100AC0009AA190689AA389A3DECF8230A1F68B8D7C
:100AD0009C8D892B81F6898D9A8D801791075CF208
:100AE000801B910B2D8D3E8DB801820F931F0E94AC
:100AF000C5011C8F0B8FC7CFFB0120812138B1F4BA
:100B00002381223299F4DC0112964C9112972481B0
:100B100035814217130651F421E057962C934CE18E
:100B200050E06CEA70E080E80C94810190E080E095
:100B30000895CF93DF93CDB7DEB769970FB6F894DA
:100B4000DEBF0FBECDBFFC01DB019C919F5F9C937C
:100B50009E012D5F3F4F81E1D9011D928A95E9F7F2
:100B600029E0298384E08A8391E09D8383E08E835A
:100B70002A8721E22B879C879D879F8722E2288BEB
:100B80002CE1298B27E02B8B25E02C8B8E8B20E40E
:100B900030E0388F2F8B998F82818B83838180689F
:100BA0008D8B49E150E0BE016F5F7F4F80E00E9476
:100BB000810169960FB6F894DEBF0FBECDBFDF91FD
:100BC000CF910895CF93DF931F92CDB7DEB769839E
:100BD000DC01ED91FC910288F389E02D41E050E0C9
:100BE000BE016F5F7F4F09950F90DF91CF91089500
:100BF0000A970C94E20508950895DC015B968D91A7
:100C00009C915C971816190674F459962D913C9195
:100C10005A97281B390B5D96ED91FC91E20FF31F5B
:100C2000808190E008958FEF9FEF08950A970C94CC
:100C3000FD05FC01438D548D141615068CF4858D2D
:100C4000968D218D328DBA0161507109748F638F39
:100C5000F901E41BF50BE80FF91F808190E008957E
:100C60008FEF9FEF08950A970C941906FC01818974
:100C7000928997FF02C090E080E00895FC01838D87
:100C8000948D97FF02C090E080E00895FC0182817E
:100C90008F5BFB01808381E00895CF93DF93EC01AC
:100CA0008A819B81DC01ED91FC910480F581E02D2E
:100CB0006A8509958A85813439F4EA81FB81EA588D
:100CC000FF4F8081846080831A861B861C861D8668
:100CD0001E861F86188A80E0DF91CF91089581E0FB
:100CE000693009F080E00895FC01828508950F9332
:100CF0001F93CF93DF93FC018B01EA0180819181E7
:100D0000892B31F19281992349F128813981232B53
:100D1000F9F0D8012D913C91D9014C918381682F34
:100D2000691B770B80819181860F971FDC014C93A3
:100D300082818150828388819981019799838883F8
:100D4000D8018D919C91119701968D939C93DACF48
:100D500080E0DF91CF911F910F910895838182836D
:100D600081E0F7CF0F931F93CF93DF93EC018A813C
:100D70008170F8019081292F2170821751F0E8814C
:100D8000F98190FF46C00680F781E02DB801CE01C1
:100D900009958A8186958170F801908191FB2227BF
:100DA00020F9821751F0E881F98191FF36C0028461
:100DB000F385E02DB801CE0109958A8182FB882751
:100DC00080F9F801908192FB222720F9821751F0D7
:100DD000E881F98192FF25C00684F785E02DB801EE
:100DE000CE010995F8018181811103C08281882398
:100DF00041F0E881F9810280F381E02DB801CE0154
:100E00000995F80180818A83DF91CF911F910F911D
:100E100008950480F581E02DB9CF0084F185E02D9F
:100E2000C9CF0484F585E02DDACFDF92EF92FF92EF
:100E30000F931F93CF93DF93EC0185E0E62EF12C07
:100E4000FE01869FE00DF11D1124908596FF24C0C0
:100E5000192F177001E085E0D82E8FEF800F8F30AB
:100E600008F001E0602F70E0062FD69EF001D79EBB
:100E7000F00D1124EC0FFD1F8085869586958695D3
:100E80008770181701F16F5F7F4F603168F38D81B4
:100E9000811302C011501D8385E08E9DF0018F9D4E
:100EA000F00D1124EC0FFD1F108681E08187128662
:100EB0002296D783C683DF91CF911F910F91FF9028
:100EC000EF90DF900895CE010E941507C6CFFC0178
:100ED00020812EBD9B012150310941F051810DB47B
:100EE00007FEFDCF4EB55EBD4193F5CF6150710950
:100EF000860F971F0DB407FEFDCF2EB5FC01208392
:100F00000895FC0121E0613499F49C01255B3F4F79
:100F100061E0AC014E5F5F4F158666871786548788
:100F2000438735962E173F07B9F7FC0115820895C0
:100F30003585631729F02F5F35962031C9F708955D
:100F4000622F0C941507CF93DF93FC0167FD12C04D
:100F5000283080F4442319F08581873059F0EF015F
:100F6000A1E0B0E08D85882349F111962596A03146
:100F7000B105C1F780E018C085E08A9FE0018B9F32
:100F8000D00D1124CE0FDF1F442389F081E4888720
:100F900085818F5F858325E02A9FC0012B9F900D5F
:100FA0001124E80FF91F8085DF91CF91089581E02A
:100FB0008887F1CF2770687B622B0FC06623E1F230
:100FC0006770660F660F660F4423A1F36064858126
:100FD0008F5F85838770687F682B25E02A9FC0011B
:100FE0002B9F900D1124E80FF91F6087862FDCCF0F
:100FF000FC0121E0611102C0069608953585631752
:1010000039F02F5F35962031C9F790E080E00895E0
:10101000069635E0239F800D911D1124089581E0EF
:1010200008952091ED01260F3327331F213231051A
:10103000ECF420911102FC0190E080E0243069F092
:1010400082E00895A091ED012191AC0143535E4FE0
:10105000A40FB52FB11D2C930196861798F380919C
:10106000ED01680F6093ED0180E0089581E008953F
:101070008FEF9FEF08958FEF9FEF08958091C60146
:1010800090E09195819591090895CF93DF93CB01DD
:10109000EA01642F0E941108CE01DF91CF910895DB
:1010A000CF93DF931F92CDB7DEB7698361E0CE01A6
:1010B00001960E94110881E090E00F90DF91CF919E
:1010C000089590E080E00895DC01FB0112962C91D8
:1010D0001297848195812817190641F491818081A6
:1010E000813A31F49D7F81E0913009F080E00895EC
:1010F0008132E1F79B3029F482811F968C9381E045
:1011000008959A3099F7828150968C93F8CFDC013C
:10111000FB0188E4808389E4818384E482831D96D3
:101120009C911D979F709F5B93831D968D919C91C1
:1011300024E0969587952A95E1F78F708F5B8483DD
:1011400085E00895EF92FF920F931F93CF93DF9363
:10115000FB012081213871F52381223259F5DC0110
:1011600012964C91248135814217130619F5EC0132
:101170000B851C85F12CE12C0115110589F0F80176
:10118000448155816281738180E80E9481018F3F93
:10119000980749F0E80EF91ED8010D911C91ECCF8B
:1011A00081E08F87C701DF91CF911F910F91FF9051
:1011B000EF90089590E080E0F6CFCF93DF93CDB726
:1011C000DEB769970FB6F894DEBF0FBECDBFFC0146
:1011D000DB018C918F5F8C939E012D5F3F4F8DE0E3
:1011E000D9011D928A95E9F729E0298384E08A8351
:1011F00091E09D8383E08E832A8721E22B879C8761
:101200009D879F8722E2288B27E02B8B25E02C8B64
:101210008E8B20E430E0388F2F8B998F82818B83E7
:1012200095858685998B8A8B838180688D8B49E132
:1012300050E0BE016F5F7F4F80E00E9481016996A0
:101240000FB6F894DEBF0FBECDBFDF91CF910895EA
:101250003F924F925F926F927F928F929F92AF9246
:10126000BF92CF92DF92EF92FF920F931F93CF9393
:10127000DF9300D000D0CDB7DEB76C017A836983ED
:101280005C834B8384E0482E360182E1680E711C3A
:1012900093E0392E5601A7E0AA0EB11C12E05524A6
:1012A00053944601B0E18B0E911C29813A8121159E
:1012B000310509F4CDC0F60180A18230F1F0A8F526
:1012C000882309F457C0813091F7AE014F5F5F4F1B
:1012D000BE016D5F7F4FC5010E947706882309F428
:1012E000B7C0D6011596ED91FC9116978081919625
:1012F0008C939197818192968C93F6017682658288
:1013000030A2D60192968C919297843011F49396E4
:101310001C92F60181A18250848325813681308719
:1013200027838287818740A205C0833051F38430B0
:1013300009F0BDCFD60192968C919297843019F125
:10134000853009F44BC0823009F075C0AE014F5FA3
:101350005F4FBE016D5F7F4FC5010E9477068823F6
:1013600009F476C0F601858984A3F6019682858208
:1013700010A29BCF148385819681908787831287E3
:10138000118750A2A2CFAE014F5F5F4FBE016D5FCC
:101390007F4FC5010E947706882309F459C0D60102
:1013A00055968C915597833001F756968C915697A8
:1013B0008130D9F698969C91989757968C9199235D
:1013C00051F0882391F2F60153A2928996A3938952
:1013D00097A385A3CACF823041F6F5CFAE014F5F08
:1013E0005F4FBE016D5F7F4FC5010E947706882366
:1013F00079F1D60193968C919397882309F4B5CF10
:1014000012968D919C91009709F4AFCFDC01ED917C
:10141000FC910190F081E02D7401D60195960C911C
:10142000959797962C91979796964C919697949618
:101430006C9109959ACFF60185858823F9F0813062
:1014400041F1D6011E968D919C91892B09F48DCF87
:101450000F900F900F900F90DF91CF911F910F91F0
:10146000FF90EF90DF90CF90BF90AF909F908F90C4
:101470007F906F905F904F903F90089591968C91E0
:1014800091978250990B1F969C938E931E971D9651
:101490005C9229813A818B819C81782F692FF6019A
:1014A000468557854115510581F001962115310575
:1014B00039F0415051095787468721503109EDCF06
:1014C0007B836C831A821982BCCF9C838B833A8383
:1014D00029831586B6CF0895EF92FF92CF93DF93BD
:1014E000FC01E7018289823021F16787408B9B8173
:1014F00093709330F1F49A8197FF1BC02E81308D49
:10150000321708F4208F282F30E0D901AA0FBB1F13
:10151000A20FB31FAE0FBF1F9F7017969C93179714
:101520009C8118969C93189794E019969C938F5FD2
:10153000828BDF91CF91FF90EF900895EF92FF9211
:101540000F9302970E946C0A0F91FF90EF900895FD
:10155000FC018789089570E0660F771F860F971F3B
:10156000FC0185859685089581E0623009F080E070
:10157000089581E0633009F080E00895FC018681E0
:101580000895CF93DF93EC018C819D81DC01ED9177
:10159000FC910480F581E02D6E8109951F86188AE3
:1015A00081E08A8B1E821B8A1C8A1D8A1E8A1F8AE2
:1015B00080E0DF91CF9108952E9808952E9A089596
:1015C00070E0660F771F860F971FFC0156874587CF
:1015D00081E00895FC01838180640C94F40381E030
:1015E00090E090939B0280939A02089510929B0240
:1015F00010929A02089581E090E090939D0280936A
:101600009C02089510929D0210929C02089581E020
:1016100090E090939F0280939E02089510929F0203
:1016200010929E020895FB018181082E000C990BF7
:101630009093A3028093A2028281082E000C990B42
:101640009093A1028093A002089580E008950895E8
:1016500080E0089508950F931F93CF93DF93D82FC1
:10166000C62F8A0180E591E00E9406010E94DC0AF3
:10167000D260DEBDF8018C2F882339F00DB407FE4F
:10168000FDCF91919EBD8150F7CFC00FD12FD11DBD
:101690000DB407FEFDCF0E94DE0ACE01DF91CF918F
:1016A0001F910F9108950F931F93CF93DF9300D055
:1016B000CDB7DEB7182F062F80E591E00E94060116
:1016C0000E94DC0A126019830A8362E070E0CE0196
:1016D00001960E9467070E94DE0A0F900F90DF912B
:1016E000CF911F910F9108959F92AF92BF92CF9289
:1016F000DF92EF92FF920F931F93CF93DF936C01D2
:10170000C42FD22F99249394E62EF12CEE0CFF1CBB
:10171000E80EF91E86E5E80EF11CA42EB12CABE212
:10172000AA0EB11CAA0CBB1CAC0CBD1CF70180811D
:101730009181DC01ED91FC910280F381E02D202F5D
:101740004D2F6C2F0995182F803EC9F5C1112BC064
:1017500061E088EE0E94530B66E670E080E090E066
:101760000E94C203F70180819181DC01ED91FC911F
:101770000190F081E02D202F4D2F6C2F0995182F0F
:101780008D30D1F58FEF890D8330F8F0C11137C05E
:1017900061E088EE0E94530B66E670E080E090E026
:1017A0000E94C2031CC0F50180819181DC01ED9192
:1017B000FC910284F385E02D6D2F0995D3CF8D30F8
:1017C00061F48FEF890D833050F464E670E080E0BF
:1017D00090E00E94C2039394A9CF882319F2812F2D
:1017E000DF91CF911F910F91FF90EF90DF90CF90FD
:1017F000BF90AF909F900895882389F3C7CF8C2F17
:1018000090E08B96880F991F8C0D9D1DFC018081A7
:101810009181DC01ED91FC910284F385E02D6D2F27
:101820000995DDCF8EBD00000DB407FEFDCF8EB54E
:101830000895CF93C82F80E591E00E9406010E9491
:10184000DC0A8C2F0E94120C80E00E94120CC82F20
:101850000E94DE0A8C2FCF9108958F929F92AF92B3
:10186000BF92CF92DF92EF92FF920F931F93CF938D
:10187000DF93882E962E5A010E941B056B017C0176
:1018800028E8C20E23E1D21EE11CF11C10E000E0AA
:10189000D0E0C0E098280E941B056C197D098E09D4
:1018A0009F0997FF1EC0692D80EF0E94530B0E9475
:1018B0001B056C197D098E099F0997FF09C088ECEB
:1018C0000E94190C87FFF3CF60E888EC0E94530B4D
:1018D00088EF0E94190CC82FCF70C43081F0CE3031
:1018E000B9F08C2FDF91CF911F910F91FF90EF9066
:1018F000DF90CF90BF90AF909F908F9008950F5F33
:101900001F4FA114B10439F20A151B0521F6E9CFC6
:10191000DF5FD33009F0BFCFE4CFAF92BF92CF9259
:10192000DF92EF92FF920F931F93CF93DF93EC011F
:10193000B62EA42E69010E94F8077C0186EDE11401
:10194000F10409F447C0D701ED91FC91119787ED9F
:10195000309709F43FC013969C9180E0981731F0BE
:101960002081A21629F033968F5FF8CFF0E0E0E0F7
:10197000D601ED93FC938BED309761F12281269592
:101980002695203108F02FE081E090E0A0E0B0E063
:1019900004C0880F991FAA1FBB1F2A95D2F7019771
:1019A000F801918380836B2D80EE0E94530B88EDAC
:1019B0000E94190CD70114969C91682F697F992376
:1019C00029F0CA58DF4F68816260682B88ED0E9459
:1019D000530B80E0DF91CF911F910F91FF90EF901B
:1019E000DF90CF90BF90AF90089588EF0E94190CC0
:1019F000807C8034B1F018F4882301F10895803898
:101A000019F0803CC9F0089588ED0E94190C81FD01
:101A10000DC069EC88ED0E94530B82E08093A60212
:101A2000089588ED0E94190C81FDF3CF6BEC88EDD1
:101A30000E94530B83E0F2CF81E0F0CF61ED88ED9F
:101A40000E94530B1092A60208952F923F924F923C
:101A50005F926F927F928F929F92AF92BF92CF923E
:101A6000DF92EF92FF920F931F93CF93DF937B014F
:101A70003A016901F901A080B180FB013180F901CF
:101A800011821082FB01828160E181FD60E288EEBB
:101A90000E94530B2A2CA301F701608180E00E9471
:101AA0002D0C582EF6E08F1310C088EF0E94190CF1
:101AB000F70192819D7F84FF9260928360E191FDA6
:101AC00060E288EE0E94530BE6CF811150C088EC93
:101AD0000E94190C82FF5FC080E30E94190C482EFF
:101AE0008A151B0411F008F0422CF60180819181C7
:101AF000E501C81BD90BD7FF02C0D0E0C0E0842CA1
:101B0000912C8C169D060CF4E40180E591E00E9476
:101B100006010E94DC0A88E00E94120CAE0170E00F
:101B200060E0C8010E94F721209721F0BE01C801A2
:101B30000E9467070C0F1D1F0E94DE0A64E088ECFC
:101B40000E94530BF60180819181880E991E91822B
:101B50008082431420F08A149B0408F49CCF88EF01
:101B60000E94190CF701928184FB91F99283852DD3
:101B7000DF91CF911F910F91FF90EF90DF90CF9069
:101B8000BF90AF909F908F907F906F905F904F909D
:101B90003F902F90089580EF582EE9CFAF92BF92DB
:101BA000CF92DF92EF92FF920F931F93CF93DF9329
:101BB00000D000D0CDB7DEB77C01690158011C828E
:101BC0001B821A8219828E010F5F1F4F9E012D5FAB
:101BD0003F4F0E948D0C811109C049815A816B8150
:101BE0007C8185019601C7010E94250D0F900F9001
:101BF0000F900F90DF91CF911F910F91FF90EF9079
:101C0000DF90CF90BF90AF9008952F923F924F9268
:101C10005F926F927F928F929F92AF92BF92CF927C
:101C2000DF92EF92FF920F931F93CF93DF93CDB785
:101C3000DEB765970FB6F894DEBF0FBECDBF3C018F
:101C4000342E222E402EED8AEAA4FBA4188A1F8689
:101C50001E861D868E01035F1F4F9E01215F3F4F31
:101C600040E00E948D0C582E811139C139822A82A0
:101C70004B822D892C83DE82CD82B886AF82AE0165
:101C80004F5F5F4F68E080E20E942B0B4D855E85C1
:101C900060E080E10E942D0C81113FC1E114F1044C
:101CA00009F453C00F851889D80112968C911297A8
:101CB00037FE51C0826012968C9365014424439490
:101CC000C114D10409F42EC19C868B864D855E8596
:101CD0006F85788987019E01255F3F4FC3010E9470
:101CE000250D582EB6E08B130EC088EF0E94190CFC
:101CF000EF85F88985FB882780F98425928180FB10
:101D000091F99283DDCF8111EAC0ECA5FDA5309752
:101D1000A1F06B857C850190F081E02D0190F08130
:101D2000E02DC5018C199D099A8789879E01275F3F
:101D30003F4FA7018CA59DA509958B859C85C81A49
:101D4000D90A8815990508F0BBCF4D855E8537FE09
:101D5000E0C080EADFC0816012968C9312971196E2
:101D60006C908FEF860D803408F0D9C02D843E84AE
:101D70000E941B059B01AC0128573C4E4F4F5F4F03
:101D8000298B3A8B4B8B5C8BD80112968C9160E837
:101D900080FF60E488EE0E94530B512C712C81145B
:101DA000910409F48BC053018614970408F454017C
:101DB000AD8AA7016A2D80E10E942B0B6A2D88E372
:101DC0000E94530BF8016081606280EF0E94530B08
:101DD00088EC0E94190C87FFFBCF60E888EC0E941A
:101DE000530B88EF0E94190C8F70582E412CD12C68
:101DF000C12C552021F10E941B0529893A894B8964
:101E00005C89621B730B840B950B97FF18C036E03F
:101E1000531609F43FC04EE05416B1F054E0551289
:101E200009C08FEFC81AD80A2114310489F02C1484
:101E30003D0471F460E088E30E94530B41C08A18AE
:101E40009B08EA0CFB1CABCF439493E0491691F33B
:101E500060E088E30E94530BD7016C9180E10E94FF
:101E6000530B6D8988E30E94530BF8016081606217
:101E700080EF0E94530B88EC0E94190C87FFFBCF68
:101E800060E888EC0E94530B88EF0E94190C8F7059
:101E9000582EAFCF88EF0E94190C85FB882780F958
:101EA000A1E08A27F801928180FB90F9928360E893
:101EB00090FF60E488EE0E94530BCACF5110BACF56
:101EC00088EF0E94190CD80112969C91129785FBFD
:101ED00090F912969C934D855E855520D1F0852D05
:101EE00065960FB6F894DEBF0FBECDBFDF91CF91E0
:101EF0001F910F91FF90EF90DF90CF90BF90AF9028
:101F00009F908F907F906F905F904F903F902F9019
:101F1000089580E860E00E942D0C582EE0CF8AEDF5
:101F2000582EDDCF4D855E85552009F412CFD7CFD1
:101F30008F929F92AF92BF92CF92DF92EF920F93C8
:101F4000CF931F921F921F921F92912C812CB12C24
:101F5000A12CD12CC12CE12C062F25E040E060E023
:101F60000E94050EC82F6CE271E080E090E00E94B4
:101F7000C2030F900F900F900F908C2FCF910F9165
:101F8000EF90DF90CF90BF90AF909F908F9008958B
:101F90008F929F92AF92BF92CF92DF92EF920F9368
:101FA0001F921F923F932F934A015A01D12CC12CAB
:101FB000EE24E39400E026E040E80E94050E0F9036
:101FC0000F900F900F900F91EF90DF90CF90BF90F8
:101FD000AF909F908F9008952F923F924F925F9273
:101FE0006F927F928F929F92AF92BF92CF92DF9229
:101FF000EF92FF920F931F93CF93DF93CDB7DEB78E
:1020000067970FB6F894DEBF0FBECDBF1B8A38E0CE
:102010003C8B3CE33D8B8A3F3FEF9307D9F406EDC1
:10202000802F67960FB6F894DEBF0FBECDBFDF914D
:10203000CF911F910F91FF90EF90DF90CF90BF90C5
:10204000AF909F908F907F906F905F904F903F9058
:102050002F900895122F342E462E7C01DC01169607
:10206000CD90DC901797CE01439617969C938E9354
:1020700016971A962C939E012F5F3F4F42E150E036
:1020800060E0C7010E94C80F582EF701D782C682B0
:10209000082F8111C5CF89849A846B847C84FD814B
:1020A000FE8B3E813F8B670186E5C80ED11C560131
:1020B000212CD5018D919C910097F1F52394B2E0EC
:1020C000AB0EB11CE0E12E12F4CFF60180819181BC
:1020D000009709F070C05394F2E0CF0ED11C30E1AC
:1020E0005312F3CFF7018681978107ED892B09F40D
:1020F00097CF1287232D40E0642DC7010E94A307CC
:10210000D82E04ED882309F48BCF682FC7010E94D5
:10211000F807009709F483CFDC0114961C936D2D0A
:10212000C7010E94980F082F882309F479CF6D2DDD
:10213000C7010E94810774CFDC01ED91FC910084FE
:10214000F185E02D09958111B9CFF501808191814B
:10215000DC01ED91FC910088F189E02D6F890995F2
:10216000882309F4ABCFF50180819181DC01ED91E9
:10217000FC910484F585E02DA301B4010995882321
:1021800061F0012F232D442D622DC7010E94740B95
:10219000082F813D09F492CF43CFF50180819181D1
:1021A000DC01ED91FC910684F785E02D6E8909959F
:1021B0008111E7CF83CFDC01ED91FC910084F185A3
:1021C000E02D0995811187CFF60180819181DC0195
:1021D000ED91FC910088F189E02D6F8909958111BD
:1021E0000DC0012F232D442D652DC7010E94740BB6
:1021F000082F877F813D09F013CF6DCFF6018081D5
:102200009181DC01ED91FC910484F585E02DA30121
:10221000B401099581115FCFF60180819181DC01C4
:10222000ED91FC910684F785E02D6E890995882350
:10223000C1F251CF8F929F92AF92BF92CF92DF9215
:10224000EF920F931F931F921F921F930F934A01B8
:102250005A01D12CC12C32E0E32E022F26E040E8B7
:102260000E94050E0F900F900F900F901F910F91ED
:10227000EF90DF90CF90BF90AF909F908F90089598
:102280008F929F92AF92BF92CF92DF92EF920F9375
:10229000C42ED12C1F921F921F921F92912C812C21
:1022A000B12CA12CE12C062F21E043E2FC01628538
:1022B000828193810E94050E0F900F900F900F90D6
:1022C0000F91EF90DF90CF90BF90AF909F908F9045
:1022D00008958F929F92AF92BF92CF92DF92EF922A
:1022E0000F93C62ED12C1F921F925F934F9324E021
:1022F000822E912C34E0A32EB12CE12C00E020E0C2
:1023000043EAFC016285828193810E94050E0F9051
:102310000F900F900F900F91EF90DF90CF90BF90A4
:10232000AF909F908F9008958F929F92AF92BF929F
:10233000CF92DF92EF920F93C42ED12C1F921F9257
:102340001F921F92912C812CB12CA12CE12C062FD5
:1023500023E043E2FC016285828193810E94050EA5
:102360000F900F900F900F900F91EF90DF90CF9004
:10237000BF90AF909F908F900895CF92DF92EF9291
:10238000FF921F93CF93DF93EC01162F7A01FA018E
:1023900080819181A281B3818130F3E09F07F1E0D8
:1023A000AF07B105C9F170F48115E1E09E07AE07F2
:1023B000B10509F450C081309140A140B10561F1EF
:1023C00080E041C0833021E0920720E1A207B105FF
:1023D00029F083309340A041B10591F7412F64E18A
:1023E000CE010E944011412F60E1CE010E944011B8
:1023F00064E170E080E090E00E94C2036A85F7012A
:102400002181269521706770412F8A819B810E94CE
:10241000EC0F10923702D4CF809137028111D0CFC8
:10242000412F61E1CE010E944011412F60E1CE01B8
:102430000E944011412F64E0CE010E94941181E07E
:102440008093370281EBDF91CF911F91FF90EF9046
:10245000DF90CF900895462F61E1CE010E94401198
:10246000412F60E1CE010E944011109237028A850F
:1024700087701770880F880F880F182B09F4A0CF6A
:10248000EA80FB806701F6E5CF0ED11CD0E0C0E00A
:10249000D6018D919D916D010097C1F0DC01ED9108
:1024A000FC910084F185E02D099518130FC0AB96BF
:1024B000CC0FDD1FCE0DDF1D88819981DC01ED91F0
:1024C000FC910480F581E02D09957ACF2196C031E9
:1024D000D105F1F675CFCF92DF92EF92FF920F9375
:1024E0001F93CF93DF93CDB7DEB72E970FB6F89437
:1024F000DEBF0FBECDBFFC012089211111C010E04D
:10250000812F2E960FB6F894DEBF0FBECDBFDF91A0
:10251000CF911F910F91FF90EF90DF90CF90089592
:102520007C010E941B05F7010485158526853785EA
:10253000601B710B820B930B97FDE1CF81E090E064
:102540009E878D878E010F5F1F4F9E01235F3F4F38
:1025500041E06285828193810E94CE0D182F811106
:1025600021C082E0D82E01E089818D2139F11986C0
:102570001A861B861C86AE01475F5F4F602FC7011E
:102580000E946911C82E811119C0AE01475F5F4FCB
:10259000602FC7010E94BD11813B19F0882371F0A3
:1025A000C82E1C2D0E941B056C597F4F8F4F9F4FCB
:1025B000F7016487758786879787A2CFDD0C0F5F49
:1025C000083091F601E0F7018385801758F31986EA
:1025D0001A861B861C86AE01475F5F4F602FC701BE
:1025E0000E946911D82E811117C089859A8587703C
:1025F00091708130914081F48B859C8581609C87AE
:102600008B87AE01475F5F4F602FC7010E94BD11EE
:10261000813B29F0811102C00F5FD5CFD82E1D2D2F
:10262000C1CFCF92DF92FF920F931F93CF93DF938F
:1026300000D000D0CDB7DEB78C01F62E19821A82F9
:102640001B821C82462F61E10E9440114F2D60E1E8
:10265000C8010E9440114F2D64E0C8010E949411EE
:1026600083E0C82ED12CAE014F5F5F4F6F2DC801A4
:102670000E946911811114C089819A81AB81BC814A
:102680009D7F83309140A041B10551F064E670E038
:1026900080E090E00E94C20381E0C81AD10819F7D7
:1026A0004F2D64E1C8010E9440114F2D60E1C80127
:1026B0000E94401164E170E080E090E00E94C2035B
:1026C0000F900F900F900F90DF91CF911F910F916E
:1026D000FF90DF90CF9008952F923F924F925F929C
:1026E0006F927F928F929F92AF92BF92CF92DF9222
:1026F000EF92FF920F931F93CF93DF93CDB7DEB787
:10270000E8970FB6F894DEBF0FBECDBFDC011A9676
:102710003C91311131C1522E842E962E3C01FC0188
:10272000E280F380D701ED91FC910190F081E02DE2
:1027300060E0C70109958C010097E1F4E6ED3E2EBB
:10274000832DE8960FB6F894DEBF0FBECDBFDF91A4
:10275000CF911F910F91FF90EF90DF90CF90BF909E
:10276000AF909F908F907F906F905F904F903F9031
:102770002F900895FC01C080D18037ED332EC11415
:10278000D104F1F25301F4E0AF0EB11CDC0111965B
:10279000BC92AE9214965C92FE0131962F019F017D
:1027A00048E050E060E0D30112968D919C910E9428
:1027B000C80F382EF80114828111E1C08D8121EDFE
:1027C000322E893009F0BCCF2980D701ED91FC91E0
:1027D0000280F381E02D282D41E0692DC701099584
:1027E000F301828794ED392E882309F4A9CF9885C7
:1027F0009583682F828193810E94980F382ED8018B
:10280000CD92DC92882371F0D701ED91FC91048088
:10281000F581E02DD3011A966C91C7010995F3015A
:1028200012868ECF211006C0A114B10499F488ED50
:10283000382E86CF422D413208F040E250E092011E
:10284000F3016285828193810E94C80F382E811125
:1028500077CFEACFD30112962D903C9013971A961A
:102860001C91612FC1010E94F807FC01892B09F41A
:1028700065CF1283B182A08282E083831F921F9270
:102880005F924F9258E0852E912C68E0A62EB12CD5
:10289000D12CC12C79E2E72E00E026E040EA612F3E
:1028A000C1010E94050E382E0F900F900F900F90CF
:1028B000811146CF8B81F3018387820120E048E0BC
:1028C00050E06285828193810E941A11382E811115
:1028D00037CF4B815C8120E0D3011A966C911A9717
:1028E00012968D919C910E941A11382E811128CF39
:1028F000498150E08E010F5D1F4F20E0F30162859A
:10290000828193810E941A11382E811119CF1F9252
:102910001F921F921F92912C812CB12CA12CE12C83
:102920000E8129E040E0D3011A966C911A97129615
:102930008D919C910E94050E382E0F900F900F9054
:102940000F908111FDCE11E0F3018385811738F0DE
:10295000412F68E0C3010E9494111F5FF5CFD3019E
:102960000280F381E02DEA58FF4F808184608083EC
:1029700081E050968C93E4CE49ED342EE1CED182A5
:10298000C082DECE2F923F924F925F926F927F92E3
:102990008F929F92AF92BF92CF92DF92EF92FF926F
:1029A0000F931F93CF93DF93CDB7DEB7C358D109F1
:1029B0000FB6F894DEBF0FBECDBFDC0116963C917A
:1029C00019ED311115C0022FC42ED62E3C01FC0189
:1029D00024803580108ED101ED91FC910190F08121
:1029E000E02D60E0C10109952C010097E1F416ED9E
:1029F000812FCD57DF4F0FB6F894DEBF0FBECDBF8E
:102A0000DF91CF911F910F91FF90EF90DF90CF90CA
:102A1000BF90AF909F908F907F906F905F904F90FE
:102A20003F902F900895FC01E080F18017EDE114B4
:102A3000F104F1F29301295F3F4FEE963FAF2EAFC5
:102A4000EE973183208304839E0126593F4F48E04F
:102A500050E060E0D30114968D919C910E94C80FC4
:102A6000182F81117EC1AB961FADAB97F201F18299
:102A7000E082D101ED91FC910280F381E02D2C2DBB
:102A800040E06D2DC1010995F3018683882309F487
:102A900066C1E2969FADE2979087682F8481958109
:102AA0000E94980FF82ED101ED91FC91882379F0C6
:102AB000D20114961C920480F581E02DD301169664
:102AC0006C91C1010995F30116821F2D91CFD3019D
:102AD00016966C91D20114961C920190F081E02D13
:102AE000C1010995009709F482CFFC0104831111FB
:102AF00083C0EC96FFADEC97CF57DF4FF883C158FA
:102B0000D0402E0121E4420E511CC3010296CE5743
:102B1000DF4F99838883C258D040120190E1290E7B
:102B2000311CCF57DF4FB881C158D040FB1609F494
:102B300081C02DE131E0F20131832083CE57DF4F98
:102B400088819981C258D0409383828314821186F0
:102B5000128615861786168610A211A212A210A63A
:102B6000368225823086278234862386D3011496C6
:102B70000D90BC91A02DC258DF4FB983A883CE57CA
:102B8000D040F301F681C058DF4FF883C058D040E1
:102B90008E010F5F1F4F2F2D49E050E06F2FCD01A9
:102BA0000E941A11811121C0AB80BC805F924F92AC
:102BB0001F930F9330E4832E912CD12CC12C42E033
:102BC000E42E0F2D26E040E8C058DF4F6881C05842
:102BD000D040C258DF4F88819981CE57D0400E94A3
:102BE000050E0F900F900F900F90D30152968C917D
:102BF000823001F1F39495CF133108F012E1412FA7
:102C000050E09E0126593F4FD30116966C911697BE
:102C100014968D919C910E94C80F182F882309F457
:102C200068CFD301ED91FC910480F581E02DC301C3
:102C30000995DECEF3011289123009F08EC084812D
:102C400095810681EE962EAD3FADEE97232B71F068
:102C5000602F0E94F807FC01892B41F00283EE9659
:102C60008EAD9FADEE9791838083138368EE73E002
:102C700080E090E00E94C2031F921F921F921F9259
:102C8000912C812CB12CA12CD12CC12CE12CD30165
:102C90001F960C911F9729E040E016966C911697AD
:102CA00014968D919C910E94050E182F0F900F90F5
:102CB0000F900F908111B5CF68EE73E080E090E047
:102CC0000E94C2031F921F921F921F92F301018D57
:102CD0002BE041E26681848195810E94050E182FC8
:102CE0000F900F900F900F9081119BCF1F921F920A
:102CF0001F921F9200E02AE041E2D30116966C91E8
:102D0000169714968D919C910E94050EFE01EF5B23
:102D1000FF4F83E291E091838083FF93EF93CE0195
:102D200001969F938F9380E4882E912C90E8A92E92
:102D3000B12C22E2E22E26E041E8F3016681848193
:102D400095810E94050E81E0D30157968C930FB6B2
:102D5000F894DEBF0FBECDBF4BCE11ED62CF14EDA8
:102D600047CEF201F182E0825CCF1F93CF93DF93D5
:102D700085ED8093BC008091C9019091CA01A0911A
:102D8000CB01B091CC010796A11DB11D23E0B695F2
:102D9000A795979587952A95D1F72091BC0024FD9A
:102DA00003C01092110252C04091C9015091CA0152
:102DB0006091CB017091CC01452B462B472B69F3D9
:102DC0000097A105B10541F025E32A95F1F7000030
:102DD0000197A109B109E1CF8091C801C1E0C09379
:102DE000C701882399F1D091B8001091BA00809161
:102DF000BC008A7B8093BC0060E082E00E942C03D0
:102E000060E083E00E942C0310921102C093130231
:102E10001092120261E082E00E942C0361E083E0E4
:102E20000E942C038091B9008E7F8093B90080911D
:102E3000B9008D7F8093B90088E48093B80085E461
:102E40008093BC001093BA00D093B800DF91CF916B
:102E50001F9108956F927F928F929F92AF92BF922F
:102E6000CF92DF92EF92FF920F931F93CF93DF9356
:102E700000D0CDB7DEB77C01CDB6DEB6DC0157960B
:102E80008C91811118C0912C892D0FB6F894DEBE5B
:102E90000FBECDBE0F900F90DF91CF911F910F917C
:102EA000FF90EF90DF90CF90BF90AF909F908F906A
:102EB0007F906F9008950E941B05F7018388948886
:102EC000A588B688681979098A099B0997FDDBCF1F
:102ED000ADB6BEB64285838590E08134910508F099
:102EE00045C09A83898389819A812DB73EB7281B73
:102EF000390B0FB6F8943EBF0FBE2DBF8DB79EB7EE
:102F000001968C019E012F5F3F4FD70116966C9161
:102F1000169714968D919C910E94CE0D982E81113A
:102F200013C029813A812330310570F0F70185857E
:102F30009685009749F0DC01ED91FC910190F081BC
:102F4000E02D40E0B70109950FB6F894BEBE0FBE64
:102F5000ADBE0E941B05F701208D620F711D811D02
:102F6000911D638B748B858B968B8ECF80E490E064
:102F7000B8CF1F920F920FB60F9211248F939F9389
:102F80008091E1009091E100937F9093E10083FFB5
:102F90000FC01092E90091E09093EB001092EC00CA
:102FA00092E39093ED001092A50298E09093F000C8
:102FB00082FF22C093E09093E9009091F200992360
:102FC00019F09AE39093E80090915102992341F00F
:102FD00090915102915090935102911101C05D9ACC
:102FE0009091A402992341F09091A4029150909362
:102FF000A402911101C0289A84FF18C08091E200B8
:103000008E7E81608093E2008091E1008F7E8093CC
:10301000E100809152028E7E8061809352029F91E6
:103020008F910F900FBE0F901F90189580FFF7CFD4
:103030008091E2008E7E80618093E2008091E100C9
:103040008E7E8093E100809152028E7E8160E5CF7A
:103050001F920F920FB60F921124EF92FF920F93CF
:103060001F932F933F934F935F936F937F938F9310
:103070009F93AF93BF93EF93FF93CF93DF93CDB71E
:10308000DEB76E97DEBFCDBF1092E9008091E800F9
:1030900083FF25C068E0CE0145960E94B80182EF0B
:1030A0008093E8008D8987FF37C09091E80090FFFA
:1030B000FCCF982F907609F033C19E894F89588DA7
:1030C0002F89F88C91112FC0803851F580915302CF
:1030D0008093F1001092F1008EEF8093E8006E96DD
:1030E0000FB6F894DEBF0FBECDBFDF91CF91FF9139
:1030F000EF91BF91AF919F918F917F916F915F9170
:103100004F913F912F911F910F91FF90EF900F9052
:103110000FBE0F901F9018959EEF9093E800C9CFB7
:103120001092F100D7CF913059F48111D5CF4130B1
:10313000510591F6809153028D7F80935302CCCF3D
:10314000933049F48111C8CF4130510529F680915F
:1031500053028260F2CF953041F48091E80080FF05
:10316000FCCF20682093E300B7CF963009F0AAC0C7
:103170000B8D1C8D82E01092E9001092500210928B
:103180004F02F8122EC010924E0210924D020E9471
:1031900039021F8299E09983FA8291E09E8390EA36
:1031A000988792E3998720914F0230915002275FD0
:1031B0003F4F3C832B838D831092E9001092500285
:1031C00010924F0210934E0200934D0249E050E0DE
:1031D000BE016F5F7F4F80E00E9481010E94390233
:1031E0007BCF10934E0200934D020E942502DC011A
:1031F00012960D911C910115110509F4BDC0D8015D
:10320000ED91FC910480F581E02DBE016B5E7F4F56
:10321000C8010995009709F0AAC0F8010085118539
:10322000EACFF3E0FF120EC08F89882309F441C072
:10323000823061F440E861E182E191E00E94271B65
:1032400081114ACF81E28093EB0049CF813029F48C
:1032500040E864E18DEF90E0F1CF833099F70E9470
:103260002502DC0112960D911C91FE0131967F0121
:103270000115110579F0D801ED91FC910680F781D7
:10328000E02DB701C8010995E80EF11CF801008591
:103290001185EECFD7011C9280E390E09E8F8D8F39
:1032A000CE014D960E94C61F40E0682FCE014D967C
:1032B000C5CF67EE70E0FB01449150E080E80E94CA
:1032C00081010ACF973009F4BDCF983021F481E015
:1032D0008093F10001CF993009F0FECE837009F0A0
:1032E000B1CFEDE0F1E081E031E096E321912223DE
:1032F00071F08093E9003093EB00DF0111972C917E
:103300002093EC009093ED008F5F873079F78EE784
:103310008093EA001092EA008F898093A502DCCEA8
:103320008B8D9C8D1092E9001092500210924F02EA
:1033300090934E0280934D020E942502DC0112966A
:103340000D911C910115110509F47CCFD801ED9167
:10335000FC910190F081E02DBE016B5E7F4FC801B2
:1033600009958111B9CEF80100851185EBCF1816AA
:1033700019060CF4B1CE66CFF1E0FF1252CF6BEE1E
:1033800070E099CF1F920F920FB60F9211242F93D6
:103390003F938F939F93AF93BF9380913902909106
:1033A0003A02A0913B02B0913C023091380223E0F6
:1033B000230F2D3758F50196A11DB11D209338021A
:1033C0008093390290933A02A0933B02B0933C025F
:1033D00080913D0290913E02A0913F02B091400247
:1033E0000196A11DB11D80933D0290933E02A093D2
:1033F0003F02B0934002BF91AF919F918F913F9157
:103400002F910F900FBE0F901F90189526E8230F55
:103410000296A11DB11DD2CF1F920F920FB60F922F
:1034200011242F933F934F935F936F937F938F93C9
:103430009F93AF93BF93EF93FF938091B900887FE1
:10344000803609F44AC0F0F5883209F4A5C018F5B1
:10345000803109F499C0B8F4882309F4F5C08830A4
:1034600009F492C0FF91EF91BF91AF919F918F911D
:103470007F916F915F914F913F912F910F900FBE70
:103480000F901F901895883109F486C0803251F74B
:103490008093100214C0803409F49BC040F4803340
:1034A000B9F38833F9F68093100285ECAEC080350D
:1034B00009F483C0883509F494C0883499F60E94D1
:1034C000B516D0CF883909F48AC038F5883729F085
:1034D00050F4883611F0803729F683E0809311028A
:1034E00010920F0255C0883809F479C0803919F05C
:1034F000803809F0B7CF80910F02803208F06FC09A
:10350000E0910F0281E08E0F80930F028091BB004B
:10351000F0E0E151FE4F80833BC0803B39F0D0F4B6
:10352000803A09F477C0883A09F09CCF84E0809310
:1035300011021092EE011092ED01F0E0E0E0099529
:103540008091ED0181110FC081E08093ED01109217
:10355000CD0109C0803C09F4A8CF883C09F4A5CF6F
:10356000883B09F07FCFE091EE0181E08E0F8093E0
:10357000EE01F0E0E353FE4F80818093BB00909119
:10358000EE018091ED0129C0809136028093BB004D
:1035900085EC8093BC0066CF909135028091340217
:1035A000981758F5E091350281E08E0F809335022F
:1035B000F0E0EC5EFD4F8081E9CFE091350281E0E3
:1035C0008E0F809335028091BB00F0E0EC5EFD4FE2
:1035D000808390913502809134029817C8F285E873
:1035E000D8CFE091350281E08E0F80933502809133
:1035F000BB00F0E0EC5EFD4F8083809113028111EF
:103600005ECF81E08093120284EA8093BC00109226
:10361000110228CF85EC8093BC001092110280919A
:103620000F02803230F4E0910F02F0E0E151FE4FE2
:10363000108260910F0270E08FEE91E0F0E0E0E028
:10364000099510920F020ECF1092100238CFEF9210
:10365000FF920F931F93CF93DF93F82E192FE62E2F
:10366000042F81E0860F880F0E94530183E00E949F
:103670005301CF2DD12FEC0EFD2EF11CCE15DF0501
:10368000B9F007FF13C0FE0184910E945301182F67
:1036900080E00E945301812321968111EFCFDF91B9
:1036A000CF911F910F91FF90EF9008958881EDCFFA
:1036B00081E0F5CFCF931092AA021092A90288EE72
:1036C00093E0A0E0B0E08093AB029093AC02A093B3
:1036D000AD02B093AE0229E231E03093A80220930C
:1036E000A7022FEF3FEF3093B4022093B302C1E063
:1036F000C093FB02C093FC022DE033E03093FE0246
:103700002093FD02109200031092FF021092040316
:10371000109203038093050390930603A09307037D
:10372000B09308038BE391E09093F8028093F70243
:1037300083E591E09093020380930103C0930E030D
:10374000C0930F03109211031092100310921303F1
:10375000109212031092170310921603109219037D
:103760001092180381EC80930D030E94250267EFED
:1037700072E00E946202109241038091390381112C
:1037800012C010923403109233038EE791E09093AD
:1037900036038093350386E390E09093380380935B
:1037A0003703C093390380912B0381112CC0C1E0F2
:1037B000C0931E03C0931F0384E293E09093210300
:1037C00080932003109223031092220385E691E058
:1037D00090931B0380931A031092260310922503E3
:1037E0001092280310922703C0932903C0932A0341
:1037F00081EC809324030E9425026AE173E00E9419
:103800006202C0932B03E0912503F09126033097C9
:1038100009F0FCC083E393E0909326038093250393
:10382000809127039091280320913703309138032A
:10383000820F931F90932803809327038BEA91E0D4
:1038400090937A03809379031092810381E08093AF
:103850008203109283038BE793E09093800380931D
:103860007F0310927B0388E080937C038CE380933A
:103870007D0310927E03E9E7F3E024EC33E091E06E
:103880004BE753E01586968717865487438735960E
:103890002E173F07B9F71092EF0381E1809342039F
:1038A00025E931E0309369032093680329E733E089
:1038B00030936B0320936A031092780310926C0389
:1038C00088E080936D032CE320936E0390936F0345
:1038D0008093700384E080937103109272031092BE
:1038E0007303109274031092750310927603109272
:1038F0007703AFECB3E0FD0190E080E021913191DE
:10390000232B09F08CC0880F991FFC01E153FC4F59
:1039100088E693E09183808389E793E09093530353
:103920008093520381E791E090934F0380934E037D
:103930008FE891E0909351038093500310926103BC
:103940001092620310926303109264031092650355
:103950001092670381E08093600310925F031092DE
:10396000550388E0809356038CE3809357031092AD
:1039700058031092590384E080935A0310925B031A
:1039800010925C0310925D0390E080E02D913D91D8
:10399000232B09F04AC0880F991FFC01E153FC4F0B
:1039A0008EE493E091838083109249031092480340
:1039B00010924B0310924A0310924D0310924C0345
:1039C00061E070E090E080E00E943121009799F181
:1039D000909349038093480310924B0310924A033B
:1039E00020914C0330914D03232B11F4FC011082E4
:1039F00010924D0310924C0365EC71E080914803E6
:103A0000909149030E94FE212AC0FC01808191818E
:103A10000097D9F783E393E09183808301CF0196E8
:103A20008031910509F06ACF77CF019680319105F9
:103A300009F0ACCFB9CF809148039091490300972A
:103A400011F00E94A820109249031092480310928E
:103A50004D0310924C0310924B0310924A0385EBD6
:103A600091E09093440380934303CF910895789419
:103A700084B5826084BD84B5816084BD85B5826073
:103A800085BD85B5816085BD80916E008160809324
:103A90006E0010928100809181008260809381008D
:103AA000809181008160809381008091800081609D
:103AB000809380008091910082608093910080913A
:103AC000910081608093910080919000816080934B
:103AD00090008091C10084608093C1008091C100FA
:103AE00082608093C1008091C10081608093C10099
:103AF0008091C30081608093C3008091C000826088
:103B00008093C0008091C20081608093C200809148
:103B10007A00846080937A0080917A00826080933A
:103B20007A0080917A00816080937A0080917A0097
:103B3000806880937A001092A5021092530210922E
:103B400052028091D70081608093D70080EA8093F1
:103B5000D80089B5806189BD89B5826089BD09B405
:103B600000FEFDCF61E070E080E090E00E94C203C3
:103B70008091D8008F7C80618093D8008091E00094
:103B8000807F8093E0008091E1008E7E8093E10051
:103B90008DE08093E200559A209A68E873E180E016
:103BA00090E00E94C20389E592E090931503809310
:103BB000140380E490E0909311038093100310921B
:103BC000130310921203269A0E94DE0ACFB7F894CC
:103BD00080915402811124C0E1E5F1E08491E0E795
:103BE000F1E09491E82FF0E0EE0FFF1FEE5CFE4F46
:103BF000A591B491EC91E92321F461E081E10E9467
:103C00002C0381E10E9409018CB580618CBD8CB5CB
:103C100080648CBD8FE00E94090180E10E9409014F
:103C2000809154028F5F80935402CFBF209A289ACC
:103C3000259868E188E80E94530B60E288E70E94BB
:103C4000530B60E088E70E94530BD0E0C0E088E6A9
:103C50000E94190C219680FF1CC061EC88ED0E9427
:103C6000530B60E680ED0E94530B64E088EE0E94E7
:103C7000530B88EE0E94190C82FFFBCF0E94F50CBB
:103C800060E288EC0E94530B61E080E80E94530BD5
:103C900003C0CF3FDC07D9F683E493E090935C0345
:103CA00080935B0360E0C62E60E0D62E70E2272E84
:103CB000E3E13E2EF1E14F2E55245394D0E580E907
:103CC000B82E90EAA92E20E8922E31E5832E40E40A
:103CD000742E52E1652E1092A3021092A20210924D
:103CE000A1021092A00283B1C82FC07285FD0CC042
:103CF00088EC0E94190C85FF03C00E94F50CC0E2FD
:103D00006C2F88EC0E94530B8091A602813041F009
:103D100050F0823009F49BC0833069F0C0E021C0CC
:103D200030924203FBCF80914203807F8031B1F318
:103D300040924203F3CFC1E080914203807F803103
:103D400081F40E941B0568537F4F8F4F9F4F6093F4
:103D50005502709356028093570290935802209216
:103D600042030FEC13E07801D7018D919D917D0105
:103D7000009739F0DC01ED91FC910680F781E02D90
:103D80000995BFEEEB16B3E0FB0671F78091420395
:103D9000803409F494C008F05CC0803209F478C023
:103DA000803309F485C08131A9F41092EF03F80142
:103DB000819191918F01009739F0DC01ED91FC9197
:103DC0000480F581E02D0995B3E00F3E1B0779F7DC
:103DD0006092420380919E0290919F02009709F0A9
:103DE000A2C081E00E94EC0480919C0290919D020F
:103DF000009709F09FC082E00E94EC0480919A0233
:103E000090919B02009709F09CC084E00E94EC0412
:103E10006091A0028091A2020E948E048091120300
:103E200090911303181619060CF0A0C08091590246
:103E3000853E09F48DC080919902882309F492C0CF
:103E400060915B0280915A020E948E048BC0C0E098
:103E500073CF813509F443C0803809F452C08035EE
:103E600009F0B8CF88EC0E94190C86FFB3CF80927E
:103E700042030E941B056C5E7F4F8F4F9F4F6093E4
:103E80005502709356028093570290935802A2CF26
:103E90000E941B0500915502109156022091570275
:103EA00030915802601B710B820B930B97FD92CFE0
:103EB00061E088EE0E94530B709242038BCF88EE34
:103EC0000E94190C80FD86CF88ED0E94190C682F86
:103ED000686088ED0E94530BD09342037BCF0E9411
:103EE0001B05009155021091560220915702309106
:103EF0005802601B710B820B930B97FD6BCF909256
:103F000042032C2F40E060E089E793E00E94EC0F31
:103F1000882331F0823D09F45DCFA09242035ACF4D
:103F2000B092420357CF019709F05ECF81E00E9423
:103F3000F9045ACF019709F061CF82E00E94F90499
:103F40005DCF019709F064CF84E00E94F90460CF4F
:103F500040E450E069E572E087EF92E00E94EA0AEF
:103F6000509299021092130310921203C114D104BB
:103F700009F4B1CE0E940000A2CE80914803909136
:103F80004903009711F00C94A8200895FC010590B6
:103F90000020E9F7809590958E0F9F1F08952F922E
:103FA0003F924F925F926F927F928F929F92AF92C9
:103FB000BF92CF92DF92EF92FF920F931F93CF9316
:103FC000DF93CDB7DEB7CA1BDB0B0FB6F894DEBFAD
:103FD0000FBECDBF09942A88398848885F846E84D3
:103FE0007D848C849B84AA84B984C884DF80EE801D
:103FF000FD800C811B81AA81B981CE0FD11D0FB626
:10400000F894DEBF0FBECDBFED010895EE0FFF1F88
:104010000590F491E02D09940F931F93CF93DF93B4
:104020008230910510F482E090E0E091F203F0918B
:10403000F30330E020E0B0E0A0E0309799F42115E0
:10404000310509F44AC0281B390B24303105D8F555
:104050008A819B816115710589F1FB0193838283BC
:10406000FE0111C040815181028113814817590717
:10407000E0F04817590799F4109761F012960C93E5
:10408000129713961C933296CF01DF91CF911F9117
:104090000F9108950093F2031093F303F4CF2115C9
:1040A000310551F04217530738F0A901DB019A019D
:1040B000BD01DF01F801C1CFEF01F9CF9093F30308
:1040C0008093F203CDCFFE01E20FF31F8193919312
:1040D0002250310939832883D7CF2091F0033091C2
:1040E000F103232B41F420911501309116013093F7
:1040F000F1032093F0032091130130911401211555
:10410000310541F42DB73EB7409117015091180188
:10411000241B350BE091F003F091F103E217F30754
:10412000A0F42E1B3F0B2817390778F0AC014E5F27
:104130005F4F2417350748F04E0F5F1F5093F10370
:104140004093F003819391939FCFF0E0E0E09CCF08
:10415000CF93DF930097E9F0FC013297138212822C
:10416000A091F203B091F303ED0130E020E010974D
:10417000A1F420813181820F931F2091F0033091AF
:10418000F1032817390709F061C0F093F103E093B8
:10419000F003DF91CF910895EA01CE17DF07E8F52C
:1041A0004A815B819E0141155105B1F7E901FB830D
:1041B000EA8349915991C40FD51FEC17FD0761F4AB
:1041C000808191810296840F951FE90199838883EC
:1041D000828193819B838A83F0E0E0E012968D9147
:1041E0009C9113970097B9F52D913C911197CD01B2
:1041F0000296820F931F2091F0033091F10328174C
:10420000390739F6309751F51092F3031092F20303
:10421000B093F103A093F003BCCFD383C28340815A
:104220005181840F951FC817D90761F44E5F5F4F06
:1042300088819981480F591F518340838A819B81CE
:10424000938382832115310509F0B0CFF093F303F6
:10425000E093F2039ECFFD01DC01C0CF13821282F6
:10426000D7CFB0E0A0E0E7E3F1E20C94D11F8C01DE
:10427000009751F4CB010E940C208C01C801CDB7EE
:10428000DEB7E0E10C94ED1FFC01E60FF71F9C0187
:1042900022503109E217F30708F49DC0D901CD91EE
:1042A000DC911197C617D70798F0C530D10530F3C8
:1042B000CE0104978617970708F3C61BD70B2297E2
:1042C000C193D1936D937C93CF010E94A820D6CF48
:1042D0005B01AC1ABD0A4C018C0E9D1EA091F2032D
:1042E000B091F303512C412CF12CE12C109731F5B6
:1042F0008091F0039091F1038815990509F05CC055
:104300004616570608F058C0809113019091140189
:10431000009741F48DB79EB7409117015091180155
:10432000841B950BE817F90708F055C0F093F103CB
:10433000E093F003F90171836083A0CF8D919C918C
:10434000119712966C90129713967C901397A8155C
:10435000B90559F56C0142E0C40ED11CCA14DB0446
:1043600020F1AC014A195B09DA011296159780F029
:104370006282738251834083D9016D937C93E114EF
:10438000F10471F0D7011396FC93EE93129776CF58
:1043900022968C0F9D1FF90191838083F301EFCF4B
:1043A000F093F303E093F20369CF4816590608F43B
:1043B0002C017D01D3019ACFCB010E940C207C01FE
:1043C000009749F0AE01B8010E94EE21C8010E9499
:1043D000A820870153CF10E000E050CFFB01DC01A3
:1043E00002C001900D9241505040D8F70895DC0171
:1043F00001C06D9341505040E0F70895FB01DC018E
:1044000001900D920020E1F7089510E0CBEDD0E08F
:1044100004C0FE010E9406202196CC3DD107C9F7B9
:04442000F894FFCF3E
:10442400FFFFFFFF00E100000000000000C18081E9
:104434000000000000F403800000000000280900D0
:104444000000006B0A00000000AA020505CB02C0B0
:10445400021203D002EE0200000000270599057C39
:104464000546063E061906FD05FC05E205EA0AF6C0
:10447400FF0000F805F8016108FB0536063306164F
:1044840006000000006408DD08A208870800000098
:1044940000C214280BC10A2A17BE0A270B250BB920
:1044A4000AB40AAB0AE00AA80A6C0AFEFF00009EDE
:1044B4000A000000006C13280B4D066B12740611E1
:1044C40013250B6F060F0800000000F807A30781EF
:1044D4000700000000B206130B0E0B070B020BFBC8
:0644E4000AF60AEF0A00CF
:00000001FF
